{
  "_format": "hh-sol-artifact-1",
  "contractName": "UniversalSwap",
  "sourceName": "contracts/UniversalSwap.sol",
  "abi": [
    {
      "inputs": [],
      "stateMutability": "nonpayable",
      "type": "constructor"
    },
    {
      "anonymous": false,
      "inputs": [
        {
          "indexed": true,
          "internalType": "string",
          "name": "token",
          "type": "string"
        },
        {
          "indexed": false,
          "internalType": "uint256",
          "name": "newLiquidity",
          "type": "uint256"
        },
        {
          "indexed": false,
          "internalType": "uint256",
          "name": "timestamp",
          "type": "uint256"
        }
      ],
      "name": "LiquidityUpdated",
      "type": "event"
    },
    {
      "anonymous": false,
      "inputs": [
        {
          "indexed": true,
          "internalType": "address",
          "name": "user",
          "type": "address"
        },
        {
          "indexed": false,
          "internalType": "string",
          "name": "tokenIn",
          "type": "string"
        },
        {
          "indexed": false,
          "internalType": "string",
          "name": "tokenOut",
          "type": "string"
        },
        {
          "indexed": false,
          "internalType": "uint256",
          "name": "amountIn",
          "type": "uint256"
        },
        {
          "indexed": false,
          "internalType": "uint256",
          "name": "amountOut",
          "type": "uint256"
        },
        {
          "indexed": false,
          "internalType": "uint256",
          "name": "timestamp",
          "type": "uint256"
        }
      ],
      "name": "UniversalSwapExecuted",
      "type": "event"
    },
    {
      "stateMutability": "payable",
      "type": "fallback"
    },
    {
      "inputs": [],
      "name": "BASIS_POINTS_DIVISOR",
      "outputs": [
        {
          "internalType": "uint256",
          "name": "",
          "type": "uint256"
        }
      ],
      "stateMutability": "view",
      "type": "function"
    },
    {
      "inputs": [],
      "name": "FEE_BASIS_POINTS",
      "outputs": [
        {
          "internalType": "uint256",
          "name": "",
          "type": "uint256"
        }
      ],
      "stateMutability": "view",
      "type": "function"
    },
    {
      "inputs": [
        {
          "internalType": "string",
          "name": "token",
          "type": "string"
        }
      ],
      "name": "addLiquidity",
      "outputs": [],
      "stateMutability": "payable",
      "type": "function"
    },
    {
      "inputs": [
        {
          "internalType": "string",
          "name": "tokenIn",
          "type": "string"
        },
        {
          "internalType": "string",
          "name": "tokenOut",
          "type": "string"
        },
        {
          "internalType": "uint256",
          "name": "amountIn",
          "type": "uint256"
        }
      ],
      "name": "calculateSwapOutput",
      "outputs": [
        {
          "internalType": "uint256",
          "name": "",
          "type": "uint256"
        }
      ],
      "stateMutability": "view",
      "type": "function"
    },
    {
      "inputs": [
        {
          "internalType": "string",
          "name": "tokenIn",
          "type": "string"
        },
        {
          "internalType": "string",
          "name": "tokenOut",
          "type": "string"
        },
        {
          "internalType": "uint256",
          "name": "amountIn",
          "type": "uint256"
        },
        {
          "internalType": "uint256",
          "name": "minAmountOut",
          "type": "uint256"
        }
      ],
      "name": "executeUniversalSwap",
      "outputs": [
        {
          "internalType": "uint256",
          "name": "amountOut",
          "type": "uint256"
        }
      ],
      "stateMutability": "payable",
      "type": "function"
    },
    {
      "inputs": [
        {
          "internalType": "string",
          "name": "tokenIn",
          "type": "string"
        },
        {
          "internalType": "string",
          "name": "tokenOut",
          "type": "string"
        },
        {
          "internalType": "uint256",
          "name": "amountIn",
          "type": "uint256"
        }
      ],
      "name": "getQuote",
      "outputs": [
        {
          "internalType": "uint256",
          "name": "amountOut",
          "type": "uint256"
        },
        {
          "internalType": "uint256",
          "name": "priceImpact",
          "type": "uint256"
        }
      ],
      "stateMutability": "view",
      "type": "function"
    },
    {
      "inputs": [],
      "name": "getStats",
      "outputs": [
        {
          "internalType": "uint256",
          "name": "_totalSwaps",
          "type": "uint256"
        },
        {
          "internalType": "uint256",
          "name": "_totalVolume",
          "type": "uint256"
        },
        {
          "internalType": "uint256",
          "name": "_contractBalance",
          "type": "uint256"
        },
        {
          "internalType": "uint256",
          "name": "_supportedTokenCount",
          "type": "uint256"
        }
      ],
      "stateMutability": "view",
      "type": "function"
    },
    {
      "inputs": [],
      "name": "getSupportedTokens",
      "outputs": [
        {
          "internalType": "string[]",
          "name": "",
          "type": "string[]"
        }
      ],
      "stateMutability": "view",
      "type": "function"
    },
    {
      "inputs": [
        {
          "internalType": "string",
          "name": "token",
          "type": "string"
        }
      ],
      "name": "getTokenInfo",
      "outputs": [
        {
          "internalType": "uint256",
          "name": "liquidity",
          "type": "uint256"
        },
        {
          "internalType": "uint256",
          "name": "price",
          "type": "uint256"
        },
        {
          "internalType": "bool",
          "name": "supported",
          "type": "bool"
        }
      ],
      "stateMutability": "view",
      "type": "function"
    },
    {
      "inputs": [
        {
          "internalType": "string",
          "name": "",
          "type": "string"
        }
      ],
      "name": "isTokenSupported",
      "outputs": [
        {
          "internalType": "bool",
          "name": "",
          "type": "bool"
        }
      ],
      "stateMutability": "view",
      "type": "function"
    },
    {
      "inputs": [
        {
          "internalType": "uint256",
          "name": "",
          "type": "uint256"
        }
      ],
      "name": "supportedTokens",
      "outputs": [
        {
          "internalType": "string",
          "name": "",
          "type": "string"
        }
      ],
      "stateMutability": "view",
      "type": "function"
    },
    {
      "inputs": [
        {
          "internalType": "string",
          "name": "",
          "type": "string"
        }
      ],
      "name": "tokenLiquidity",
      "outputs": [
        {
          "internalType": "uint256",
          "name": "",
          "type": "uint256"
        }
      ],
      "stateMutability": "view",
      "type": "function"
    },
    {
      "inputs": [
        {
          "internalType": "string",
          "name": "",
          "type": "string"
        }
      ],
      "name": "tokenPrices",
      "outputs": [
        {
          "internalType": "uint256",
          "name": "",
          "type": "uint256"
        }
      ],
      "stateMutability": "view",
      "type": "function"
    },
    {
      "inputs": [],
      "name": "totalSwaps",
      "outputs": [
        {
          "internalType": "uint256",
          "name": "",
          "type": "uint256"
        }
      ],
      "stateMutability": "view",
      "type": "function"
    },
    {
      "inputs": [],
      "name": "totalVolume",
      "outputs": [
        {
          "internalType": "uint256",
          "name": "",
          "type": "uint256"
        }
      ],
      "stateMutability": "view",
      "type": "function"
    },
    {
      "inputs": [
        {
          "internalType": "string",
          "name": "token",
          "type": "string"
        },
        {
          "internalType": "uint256",
          "name": "newPrice",
          "type": "uint256"
        }
      ],
      "name": "updateTokenPrice",
      "outputs": [],
      "stateMutability": "nonpayable",
      "type": "function"
    },
    {
      "inputs": [
        {
          "internalType": "address",
          "name": "",
          "type": "address"
        },
        {
          "internalType": "string",
          "name": "",
          "type": "string"
        }
      ],
      "name": "userBalances",
      "outputs": [
        {
          "internalType": "uint256",
          "name": "",
          "type": "uint256"
        }
      ],
      "stateMutability": "view",
      "type": "function"
    },
    {
      "inputs": [
        {
          "internalType": "string",
          "name": "token",
          "type": "string"
        },
        {
          "internalType": "uint256",
          "name": "amount",
          "type": "uint256"
        }
      ],
      "name": "withdrawToken",
      "outputs": [],
      "stateMutability": "nonpayable",
      "type": "function"
    },
    {
      "stateMutability": "payable",
      "type": "receive"
    }
  ],
  "bytecode": "0x60806040523480156200001157600080fd5b506200001c62000022565b620005c7565b604080516101808101825260046101408201818152630a0aaa6960e31b61016084015282528251808401845260038082526208aa8960eb1b6020838101919091528085019290925284518086018652838152635553444360e01b818401528486015284518086018652838152631554d11560e21b818401526060850152845180860186528181526242544360e81b818401526080850152845180860186528181526214d3d360ea1b8184015260a0850152845180860186529081526221272160e91b8183015260c08401528351808501855260058152644d4154494360d81b8183015260e08401528351808501855282815263082ac82b60e31b818301526101008401528351808501909452908352634c494e4b60e01b9083015261012081019190915262000150620003c8565b69d3c21bcecceda10000008152681b1ae4d6e2ef50000060208201526a01a784379d99db4200000060408201819052606082015268015af1d78b58c40000608082015269021e19e0c9bab240000060a0820152683635c9adc5dea0000060c08201526969e10de76676d080000060e082015269010f0cf064dd59200000610100820152690a968163f0a57b400000610120820152620001ee620003c8565b67016345785d8a00008152670de0b6b3a76400006020820152660110d9316ec00060408201819052606082018190526801158e460913d00000608083015266b1a2bc2ec5000060a083015267027f7d0bdb92000060c083015260e0820152662386f26fc10000610100820152660e35fa931a000061012082015260005b600a811015620003c25760058482600a81106200028c576200028c620003e7565b6020908102919091015182546001810184556000938452919092200190620002b59082620004a2565b50600160068583600a8110620002cf57620002cf620003e7565b6020020151604051620002e391906200056e565b908152604051908190036020019020805491151560ff199092169190911790558281600a8110620003185762000318620003e7565b602002015160008583600a8110620003345762000334620003e7565b60200201516040516200034891906200056e565b908152604051908190036020019020558181600a81106200036d576200036d620003e7565b602002015160028583600a8110620003895762000389620003e7565b60200201516040516200039d91906200056e565b9081526040519081900360200190205580620003b9816200059f565b9150506200026b565b50505050565b604051806101400160405280600a906020820280368337509192915050565b634e487b7160e01b600052603260045260246000fd5b634e487b7160e01b600052604160045260246000fd5b600181811c908216806200042857607f821691505b6020821081036200044957634e487b7160e01b600052602260045260246000fd5b50919050565b601f8211156200049d57600081815260208120601f850160051c81016020861015620004785750805b601f850160051c820191505b81811015620004995782815560010162000484565b5050505b505050565b81516001600160401b03811115620004be57620004be620003fd565b620004d681620004cf845462000413565b846200044f565b602080601f8311600181146200050e5760008415620004f55750858301515b600019600386901b1c1916600185901b17855562000499565b600085815260208120601f198616915b828110156200053f578886015182559484019460019091019084016200051e565b50858210156200055e5787850151600019600388901b60f8161c191681555b5050505050600190811b01905550565b6000825160005b8181101562000591576020818601810151858301520162000575565b506000920191825250919050565b600060018201620005c057634e487b7160e01b600052601160045260246000fd5b5060010190565b61135280620005d76000396000f3fe6080604052600436106101015760003560e01c8063a525ad3c1161008f578063c59d484711610061578063c59d484714610318578063c625562614610350578063c97a413a1461037d578063d3c7c2c71461039d578063e19cb380146103bf57005b8063a525ad3c146102ba578063ab8efa57146102cf578063b4a800ce146102ef578063be032c011461030557005b806325009ddb116100d357806325009ddb146101ff5780635f81a57c146102345780636d6a18a11461024a5780638959c2311461025d5780638e0ad1cc1461027d57005b806304df83011461010a5780630d3652ec14610155578063126082cf146101a057806312bd4d74146101b657005b3661010857005b005b34801561011657600080fd5b50610142610125366004610f1e565b805160208183018101805160008252928201919093012091525481565b6040519081526020015b60405180910390f35b34801561016157600080fd5b50610190610170366004610f1e565b805160208183018101805160068252928201919093012091525460ff1681565b604051901515815260200161014c565b3480156101ac57600080fd5b5061014261271081565b3480156101c257600080fd5b506101426101d1366004610f5b565b6001602090815260009283526040909220815180830184018051928152908401929093019190912091525481565b34801561020b57600080fd5b5061021f61021a366004610fb7565b6103f7565b6040805192835260208301919091520161014c565b34801561024057600080fd5b5061014260045481565b610108610258366004610f1e565b6104e7565b34801561026957600080fd5b50610142610278366004610fb7565b61062d565b34801561028957600080fd5b5061029d610298366004610f1e565b6106e8565b60408051938452602084019290925215159082015260600161014c565b3480156102c657600080fd5b50610142601e81565b3480156102db57600080fd5b506101086102ea366004611024565b61075b565b3480156102fb57600080fd5b5061014260035481565b610142610313366004611069565b610811565b34801561032457600080fd5b50600354600454600554479060408051948552602085019390935291830152606082015260800161014c565b34801561035c57600080fd5b5061037061036b3660046110dd565b610c43565b60405161014c9190611146565b34801561038957600080fd5b50610108610398366004611024565b610cef565b3480156103a957600080fd5b506103b2610da2565b60405161014c9190611160565b3480156103cb57600080fd5b506101426103da366004610f1e565b805160208183018101805160028252928201919093012091525481565b6000808460068160405161040b91906111c2565b9081526040519081900360200190205460ff166104435760405162461bcd60e51b815260040161043a906111de565b60405180910390fd5b8460068160405161045491906111c2565b9081526040519081900360200190205460ff166104835760405162461bcd60e51b815260040161043a906111de565b61048e87878761062d565b9350600080886040516104a191906111c2565b908152604051908190036020019020546104bd87612710611221565b6104c7919061123e565b9050606481116104d85760006104da565b805b9350505050935093915050565b806006816040516104f891906111c2565b9081526040519081900360200190205460ff166105275760405162461bcd60e51b815260040161043a906111de565b600034116105835760405162461bcd60e51b815260206004820152602360248201527f4d7573742073656e64204554482f5055534820746f20616464206c697175696460448201526269747960e81b606482015260840161043a565b3460008360405161059491906111c2565b908152602001604051809103902060008282546105b19190611260565b90915550506040516105c49083906111c2565b60405180910390207fef9a7b910ed098c9f5f49a1d4735e1b2c91a849dadde248958cbc2ab7f55d45c6000846040516105fd91906111c2565b90815260405190819003602001812054610621914290918252602082015260400190565b60405180910390a25050565b60008060028560405161064091906111c2565b9081526020016040518091039020549050600060028560405161066391906111c2565b9081526040519081900360200190205490506000670de0b6b3a764000061068a8487611221565b610694919061123e565b905060006127106106a6601e84611221565b6106b0919061123e565b6106ba9083611273565b90506000836106d183670de0b6b3a7640000611221565b6106db919061123e565b9998505050505050505050565b600080600080846040516106fc91906111c2565b90815260200160405180910390205460028560405161071b91906111c2565b90815260200160405180910390205460068660405161073a91906111c2565b90815260405190819003602001902054919450925060ff1690509193909250565b8160068160405161076c91906111c2565b9081526040519081900360200190205460ff1661079b5760405162461bcd60e51b815260040161043a906111de565b600082116107eb5760405162461bcd60e51b815260206004820152601c60248201527f5072696365206d7573742062652067726561746572207468616e203000000000604482015260640161043a565b816002846040516107fc91906111c2565b90815260405190819003602001902055505050565b60008460068160405161082491906111c2565b9081526040519081900360200190205460ff166108535760405162461bcd60e51b815260040161043a906111de565b8460068160405161086491906111c2565b9081526040519081900360200190205460ff166108935760405162461bcd60e51b815260040161043a906111de565b600085116108e35760405162461bcd60e51b815260206004820152601d60248201527f416d6f756e74206d7573742062652067726561746572207468616e2030000000604482015260640161043a565b85805190602001208780519060200120036109395760405162461bcd60e51b815260206004820152601660248201527521b0b73737ba1039bbb0b81039b0b6b2903a37b5b2b760511b604482015260640161043a565b61094487878761062d565b9250838310156109965760405162461bcd60e51b815260206004820152601a60248201527f496e73756666696369656e74206f757470757420616d6f756e74000000000000604482015260640161043a565b6000866040516109a691906111c2565b9081526020016040518091039020548311156109fd5760405162461bcd60e51b8152602060048201526016602482015275496e73756666696369656e74206c697175696469747960501b604482015260640161043a565b6040805180820190915260048152630a0aaa6960e31b6020918201528751908801207fe45a6728791b65ece184df9a321611a31bdb88025ef1d20a1f07f83649c3567c1480610a8b575060408051808201909152600381526208aa8960eb1b6020918201528751908801207faaaebeba3810b1e6b70781f14b2d72c1cb89c0b2b320c43bb67ff79f562f5ff4145b15610b205784341015610ae05760405162461bcd60e51b815260206004820152601a60248201527f496e73756666696369656e74204554482f505553482073656e74000000000000604482015260640161043a565b84341115610b2057336108fc610af68734611273565b6040518115909202916000818181858888f19350505050158015610b1e573d6000803e3d6000fd5b505b84600088604051610b3191906111c2565b90815260200160405180910390206000828254610b4e9190611260565b9250508190555082600087604051610b6691906111c2565b90815260200160405180910390206000828254610b839190611273565b909155505033600090815260016020526040908190209051849190610ba99089906111c2565b90815260200160405180910390206000828254610bc69190611260565b909155505060038054906000610bdb83611286565b91905055508460046000828254610bf29190611260565b909155505060405133907fa5eb57732d7f9b2373f9ae97efc9a21480553c3c87955162f03cdba9c3d93f6790610c31908a908a908a908990429061129f565b60405180910390a25050949350505050565b60058181548110610c5357600080fd5b906000526020600020016000915090508054610c6e906112e2565b80601f0160208091040260200160405190810160405280929190818152602001828054610c9a906112e2565b8015610ce75780601f10610cbc57610100808354040283529160200191610ce7565b820191906000526020600020905b815481529060010190602001808311610cca57829003601f168201915b505050505081565b33600090815260016020526040908190209051829190610d109085906111c2565b9081526020016040518091039020541015610d645760405162461bcd60e51b8152602060048201526014602482015273496e73756666696369656e742062616c616e636560601b604482015260640161043a565b33600090815260016020526040908190209051829190610d859085906111c2565b908152602001604051809103902060008282546105b19190611273565b60606005805480602002602001604051908101604052809291908181526020016000905b82821015610e72578382906000526020600020018054610de5906112e2565b80601f0160208091040260200160405190810160405280929190818152602001828054610e11906112e2565b8015610e5e5780601f10610e3357610100808354040283529160200191610e5e565b820191906000526020600020905b815481529060010190602001808311610e4157829003601f168201915b505050505081526020019060010190610dc6565b50505050905090565b634e487b7160e01b600052604160045260246000fd5b600082601f830112610ea257600080fd5b813567ffffffffffffffff80821115610ebd57610ebd610e7b565b604051601f8301601f19908116603f01168101908282118183101715610ee557610ee5610e7b565b81604052838152866020858801011115610efe57600080fd5b836020870160208301376000602085830101528094505050505092915050565b600060208284031215610f3057600080fd5b813567ffffffffffffffff811115610f4757600080fd5b610f5384828501610e91565b949350505050565b60008060408385031215610f6e57600080fd5b82356001600160a01b0381168114610f8557600080fd5b9150602083013567ffffffffffffffff811115610fa157600080fd5b610fad85828601610e91565b9150509250929050565b600080600060608486031215610fcc57600080fd5b833567ffffffffffffffff80821115610fe457600080fd5b610ff087838801610e91565b9450602086013591508082111561100657600080fd5b5061101386828701610e91565b925050604084013590509250925092565b6000806040838503121561103757600080fd5b823567ffffffffffffffff81111561104e57600080fd5b61105a85828601610e91565b95602094909401359450505050565b6000806000806080858703121561107f57600080fd5b843567ffffffffffffffff8082111561109757600080fd5b6110a388838901610e91565b955060208701359150808211156110b957600080fd5b506110c687828801610e91565b949794965050505060408301359260600135919050565b6000602082840312156110ef57600080fd5b5035919050565b60005b838110156111115781810151838201526020016110f9565b50506000910152565b600081518084526111328160208601602086016110f6565b601f01601f19169290920160200192915050565b602081526000611159602083018461111a565b9392505050565b6000602080830181845280855180835260408601915060408160051b870101925083870160005b828110156111b557603f198886030184526111a385835161111a565b94509285019290850190600101611187565b5092979650505050505050565b600082516111d48184602087016110f6565b9190910192915050565b602080825260139082015272151bdad95b881b9bdd081cdd5c1c1bdc9d1959606a1b604082015260600190565b634e487b7160e01b600052601160045260246000fd5b80820281158282048414176112385761123861120b565b92915050565b60008261125b57634e487b7160e01b600052601260045260246000fd5b500490565b808201808211156112385761123861120b565b818103818111156112385761123861120b565b6000600182016112985761129861120b565b5060010190565b60a0815260006112b260a083018861111a565b82810360208401526112c4818861111a565b60408401969096525050606081019290925260809091015292915050565b600181811c908216806112f657607f821691505b60208210810361131657634e487b7160e01b600052602260045260246000fd5b5091905056fea2646970667358221220ed344d32ea5b612569f1f76a2ab0b88fd45497442524853149afd85250da08fd64736f6c63430008130033",
  "linkReferences": {},
  "deployedLinkReferences": {}
}