{"contracts/UniversalSwap.sol":{"UniversalSwap":{"abi":[{"inputs":[],"stateMutability":"nonpayable","type":"constructor"},{"anonymous":false,"inputs":[{"indexed":true,"internalType":"string","name":"token","type":"string"},{"indexed":false,"internalType":"uint256","name":"newLiquidity","type":"uint256"},{"indexed":false,"internalType":"uint256","name":"timestamp","type":"uint256"}],"name":"LiquidityUpdated","type":"event"},{"anonymous":false,"inputs":[{"indexed":true,"internalType":"address","name":"user","type":"address"},{"indexed":false,"internalType":"string","name":"tokenIn","type":"string"},{"indexed":false,"internalType":"string","name":"tokenOut","type":"string"},{"indexed":false,"internalType":"uint256","name":"amountIn","type":"uint256"},{"indexed":false,"internalType":"uint256","name":"amountOut","type":"uint256"},{"indexed":false,"internalType":"uint256","name":"timestamp","type":"uint256"}],"name":"UniversalSwapExecuted","type":"event"},{"stateMutability":"payable","type":"fallback"},{"inputs":[],"name":"BASIS_POINTS_DIVISOR","outputs":[{"internalType":"uint256","name":"","type":"uint256"}],"stateMutability":"view","type":"function"},{"inputs":[],"name":"FEE_BASIS_POINTS","outputs":[{"internalType":"uint256","name":"","type":"uint256"}],"stateMutability":"view","type":"function"},{"inputs":[{"internalType":"string","name":"token","type":"string"}],"name":"addLiquidity","outputs":[],"stateMutability":"payable","type":"function"},{"inputs":[{"internalType":"string","name":"tokenIn","type":"string"},{"internalType":"string","name":"tokenOut","type":"string"},{"internalType":"uint256","name":"amountIn","type":"uint256"}],"name":"calculateSwapOutput","outputs":[{"internalType":"uint256","name":"","type":"uint256"}],"stateMutability":"view","type":"function"},{"inputs":[{"internalType":"string","name":"tokenIn","type":"string"},{"internalType":"string","name":"tokenOut","type":"string"},{"internalType":"uint256","name":"amountIn","type":"uint256"},{"internalType":"uint256","name":"minAmountOut","type":"uint256"}],"name":"executeUniversalSwap","outputs":[{"internalType":"uint256","name":"amountOut","type":"uint256"}],"stateMutability":"payable","type":"function"},{"inputs":[{"internalType":"string","name":"tokenIn","type":"string"},{"internalType":"string","name":"tokenOut","type":"string"},{"internalType":"uint256","name":"amountIn","type":"uint256"}],"name":"getQuote","outputs":[{"internalType":"uint256","name":"amountOut","type":"uint256"},{"internalType":"uint256","name":"priceImpact","type":"uint256"}],"stateMutability":"view","type":"function"},{"inputs":[],"name":"getStats","outputs":[{"internalType":"uint256","name":"_totalSwaps","type":"uint256"},{"internalType":"uint256","name":"_totalVolume","type":"uint256"},{"internalType":"uint256","name":"_contractBalance","type":"uint256"},{"internalType":"uint256","name":"_supportedTokenCount","type":"uint256"}],"stateMutability":"view","type":"function"},{"inputs":[],"name":"getSupportedTokens","outputs":[{"internalType":"string[]","name":"","type":"string[]"}],"stateMutability":"view","type":"function"},{"inputs":[{"internalType":"string","name":"token","type":"string"}],"name":"getTokenInfo","outputs":[{"internalType":"uint256","name":"liquidity","type":"uint256"},{"internalType":"uint256","name":"price","type":"uint256"},{"internalType":"bool","name":"supported","type":"bool"}],"stateMutability":"view","type":"function"},{"inputs":[{"internalType":"string","name":"","type":"string"}],"name":"isTokenSupported","outputs":[{"internalType":"bool","name":"","type":"bool"}],"stateMutability":"view","type":"function"},{"inputs":[{"internalType":"uint256","name":"","type":"uint256"}],"name":"supportedTokens","outputs":[{"internalType":"string","name":"","type":"string"}],"stateMutability":"view","type":"function"},{"inputs":[{"internalType":"string","name":"","type":"string"}],"name":"tokenLiquidity","outputs":[{"internalType":"uint256","name":"","type":"uint256"}],"stateMutability":"view","type":"function"},{"inputs":[{"internalType":"string","name":"","type":"string"}],"name":"tokenPrices","outputs":[{"internalType":"uint256","name":"","type":"uint256"}],"stateMutability":"view","type":"function"},{"inputs":[],"name":"totalSwaps","outputs":[{"internalType":"uint256","name":"","type":"uint256"}],"stateMutability":"view","type":"function"},{"inputs":[],"name":"totalVolume","outputs":[{"internalType":"uint256","name":"","type":"uint256"}],"stateMutability":"view","type":"function"},{"inputs":[{"internalType":"string","name":"token","type":"string"},{"internalType":"uint256","name":"newPrice","type":"uint256"}],"name":"updateTokenPrice","outputs":[],"stateMutability":"nonpayable","type":"function"},{"inputs":[{"internalType":"address","name":"","type":"address"},{"internalType":"string","name":"","type":"string"}],"name":"userBalances","outputs":[{"internalType":"uint256","name":"","type":"uint256"}],"stateMutability":"view","type":"function"},{"inputs":[{"internalType":"string","name":"token","type":"string"},{"internalType":"uint256","name":"amount","type":"uint256"}],"name":"withdrawToken","outputs":[],"stateMutability":"nonpayable","type":"function"},{"stateMutability":"payable","type":"receive"}],"evm":{"bytecode":{"linkReferences":{},"object":"60806040523480156200001157600080fd5b506200001c62000022565b620005c7565b604080516101808101825260046101408201818152630a0aaa6960e31b61016084015282528251808401845260038082526208aa8960eb1b6020838101919091528085019290925284518086018652838152635553444360e01b818401528486015284518086018652838152631554d11560e21b818401526060850152845180860186528181526242544360e81b818401526080850152845180860186528181526214d3d360ea1b8184015260a0850152845180860186529081526221272160e91b8183015260c08401528351808501855260058152644d4154494360d81b8183015260e08401528351808501855282815263082ac82b60e31b818301526101008401528351808501909452908352634c494e4b60e01b9083015261012081019190915262000150620003c8565b69d3c21bcecceda10000008152681b1ae4d6e2ef50000060208201526a01a784379d99db4200000060408201819052606082015268015af1d78b58c40000608082015269021e19e0c9bab240000060a0820152683635c9adc5dea0000060c08201526969e10de76676d080000060e082015269010f0cf064dd59200000610100820152690a968163f0a57b400000610120820152620001ee620003c8565b67016345785d8a00008152670de0b6b3a76400006020820152660110d9316ec00060408201819052606082018190526801158e460913d00000608083015266b1a2bc2ec5000060a083015267027f7d0bdb92000060c083015260e0820152662386f26fc10000610100820152660e35fa931a000061012082015260005b600a811015620003c25760058482600a81106200028c576200028c620003e7565b6020908102919091015182546001810184556000938452919092200190620002b59082620004a2565b50600160068583600a8110620002cf57620002cf620003e7565b6020020151604051620002e391906200056e565b908152604051908190036020019020805491151560ff199092169190911790558281600a8110620003185762000318620003e7565b602002015160008583600a8110620003345762000334620003e7565b60200201516040516200034891906200056e565b908152604051908190036020019020558181600a81106200036d576200036d620003e7565b602002015160028583600a8110620003895762000389620003e7565b60200201516040516200039d91906200056e565b9081526040519081900360200190205580620003b9816200059f565b9150506200026b565b50505050565b604051806101400160405280600a906020820280368337509192915050565b634e487b7160e01b600052603260045260246000fd5b634e487b7160e01b600052604160045260246000fd5b600181811c908216806200042857607f821691505b6020821081036200044957634e487b7160e01b600052602260045260246000fd5b50919050565b601f8211156200049d57600081815260208120601f850160051c81016020861015620004785750805b601f850160051c820191505b81811015620004995782815560010162000484565b5050505b505050565b81516001600160401b03811115620004be57620004be620003fd565b620004d681620004cf845462000413565b846200044f565b602080601f8311600181146200050e5760008415620004f55750858301515b600019600386901b1c1916600185901b17855562000499565b600085815260208120601f198616915b828110156200053f578886015182559484019460019091019084016200051e565b50858210156200055e5787850151600019600388901b60f8161c191681555b5050505050600190811b01905550565b6000825160005b8181101562000591576020818601810151858301520162000575565b506000920191825250919050565b600060018201620005c057634e487b7160e01b600052601160045260246000fd5b5060010190565b61135280620005d76000396000f3fe6080604052600436106101015760003560e01c8063a525ad3c1161008f578063c59d484711610061578063c59d484714610318578063c625562614610350578063c97a413a1461037d578063d3c7c2c71461039d578063e19cb380146103bf57005b8063a525ad3c146102ba578063ab8efa57146102cf578063b4a800ce146102ef578063be032c011461030557005b806325009ddb116100d357806325009ddb146101ff5780635f81a57c146102345780636d6a18a11461024a5780638959c2311461025d5780638e0ad1cc1461027d57005b806304df83011461010a5780630d3652ec14610155578063126082cf146101a057806312bd4d74146101b657005b3661010857005b005b34801561011657600080fd5b50610142610125366004610f1e565b805160208183018101805160008252928201919093012091525481565b6040519081526020015b60405180910390f35b34801561016157600080fd5b50610190610170366004610f1e565b805160208183018101805160068252928201919093012091525460ff1681565b604051901515815260200161014c565b3480156101ac57600080fd5b5061014261271081565b3480156101c257600080fd5b506101426101d1366004610f5b565b6001602090815260009283526040909220815180830184018051928152908401929093019190912091525481565b34801561020b57600080fd5b5061021f61021a366004610fb7565b6103f7565b6040805192835260208301919091520161014c565b34801561024057600080fd5b5061014260045481565b610108610258366004610f1e565b6104e7565b34801561026957600080fd5b50610142610278366004610fb7565b61062d565b34801561028957600080fd5b5061029d610298366004610f1e565b6106e8565b60408051938452602084019290925215159082015260600161014c565b3480156102c657600080fd5b50610142601e81565b3480156102db57600080fd5b506101086102ea366004611024565b61075b565b3480156102fb57600080fd5b5061014260035481565b610142610313366004611069565b610811565b34801561032457600080fd5b50600354600454600554479060408051948552602085019390935291830152606082015260800161014c565b34801561035c57600080fd5b5061037061036b3660046110dd565b610c43565b60405161014c9190611146565b34801561038957600080fd5b50610108610398366004611024565b610cef565b3480156103a957600080fd5b506103b2610da2565b60405161014c9190611160565b3480156103cb57600080fd5b506101426103da366004610f1e565b805160208183018101805160028252928201919093012091525481565b6000808460068160405161040b91906111c2565b9081526040519081900360200190205460ff166104435760405162461bcd60e51b815260040161043a906111de565b60405180910390fd5b8460068160405161045491906111c2565b9081526040519081900360200190205460ff166104835760405162461bcd60e51b815260040161043a906111de565b61048e87878761062d565b9350600080886040516104a191906111c2565b908152604051908190036020019020546104bd87612710611221565b6104c7919061123e565b9050606481116104d85760006104da565b805b9350505050935093915050565b806006816040516104f891906111c2565b9081526040519081900360200190205460ff166105275760405162461bcd60e51b815260040161043a906111de565b600034116105835760405162461bcd60e51b815260206004820152602360248201527f4d7573742073656e64204554482f5055534820746f20616464206c697175696460448201526269747960e81b606482015260840161043a565b3460008360405161059491906111c2565b908152602001604051809103902060008282546105b19190611260565b90915550506040516105c49083906111c2565b60405180910390207fef9a7b910ed098c9f5f49a1d4735e1b2c91a849dadde248958cbc2ab7f55d45c6000846040516105fd91906111c2565b90815260405190819003602001812054610621914290918252602082015260400190565b60405180910390a25050565b60008060028560405161064091906111c2565b9081526020016040518091039020549050600060028560405161066391906111c2565b9081526040519081900360200190205490506000670de0b6b3a764000061068a8487611221565b610694919061123e565b905060006127106106a6601e84611221565b6106b0919061123e565b6106ba9083611273565b90506000836106d183670de0b6b3a7640000611221565b6106db919061123e565b9998505050505050505050565b600080600080846040516106fc91906111c2565b90815260200160405180910390205460028560405161071b91906111c2565b90815260200160405180910390205460068660405161073a91906111c2565b90815260405190819003602001902054919450925060ff1690509193909250565b8160068160405161076c91906111c2565b9081526040519081900360200190205460ff1661079b5760405162461bcd60e51b815260040161043a906111de565b600082116107eb5760405162461bcd60e51b815260206004820152601c60248201527f5072696365206d7573742062652067726561746572207468616e203000000000604482015260640161043a565b816002846040516107fc91906111c2565b90815260405190819003602001902055505050565b60008460068160405161082491906111c2565b9081526040519081900360200190205460ff166108535760405162461bcd60e51b815260040161043a906111de565b8460068160405161086491906111c2565b9081526040519081900360200190205460ff166108935760405162461bcd60e51b815260040161043a906111de565b600085116108e35760405162461bcd60e51b815260206004820152601d60248201527f416d6f756e74206d7573742062652067726561746572207468616e2030000000604482015260640161043a565b85805190602001208780519060200120036109395760405162461bcd60e51b815260206004820152601660248201527521b0b73737ba1039bbb0b81039b0b6b2903a37b5b2b760511b604482015260640161043a565b61094487878761062d565b9250838310156109965760405162461bcd60e51b815260206004820152601a60248201527f496e73756666696369656e74206f757470757420616d6f756e74000000000000604482015260640161043a565b6000866040516109a691906111c2565b9081526020016040518091039020548311156109fd5760405162461bcd60e51b8152602060048201526016602482015275496e73756666696369656e74206c697175696469747960501b604482015260640161043a565b6040805180820190915260048152630a0aaa6960e31b6020918201528751908801207fe45a6728791b65ece184df9a321611a31bdb88025ef1d20a1f07f83649c3567c1480610a8b575060408051808201909152600381526208aa8960eb1b6020918201528751908801207faaaebeba3810b1e6b70781f14b2d72c1cb89c0b2b320c43bb67ff79f562f5ff4145b15610b205784341015610ae05760405162461bcd60e51b815260206004820152601a60248201527f496e73756666696369656e74204554482f505553482073656e74000000000000604482015260640161043a565b84341115610b2057336108fc610af68734611273565b6040518115909202916000818181858888f19350505050158015610b1e573d6000803e3d6000fd5b505b84600088604051610b3191906111c2565b90815260200160405180910390206000828254610b4e9190611260565b9250508190555082600087604051610b6691906111c2565b90815260200160405180910390206000828254610b839190611273565b909155505033600090815260016020526040908190209051849190610ba99089906111c2565b90815260200160405180910390206000828254610bc69190611260565b909155505060038054906000610bdb83611286565b91905055508460046000828254610bf29190611260565b909155505060405133907fa5eb57732d7f9b2373f9ae97efc9a21480553c3c87955162f03cdba9c3d93f6790610c31908a908a908a908990429061129f565b60405180910390a25050949350505050565b60058181548110610c5357600080fd5b906000526020600020016000915090508054610c6e906112e2565b80601f0160208091040260200160405190810160405280929190818152602001828054610c9a906112e2565b8015610ce75780601f10610cbc57610100808354040283529160200191610ce7565b820191906000526020600020905b815481529060010190602001808311610cca57829003601f168201915b505050505081565b33600090815260016020526040908190209051829190610d109085906111c2565b9081526020016040518091039020541015610d645760405162461bcd60e51b8152602060048201526014602482015273496e73756666696369656e742062616c616e636560601b604482015260640161043a565b33600090815260016020526040908190209051829190610d859085906111c2565b908152602001604051809103902060008282546105b19190611273565b60606005805480602002602001604051908101604052809291908181526020016000905b82821015610e72578382906000526020600020018054610de5906112e2565b80601f0160208091040260200160405190810160405280929190818152602001828054610e11906112e2565b8015610e5e5780601f10610e3357610100808354040283529160200191610e5e565b820191906000526020600020905b815481529060010190602001808311610e4157829003601f168201915b505050505081526020019060010190610dc6565b50505050905090565b634e487b7160e01b600052604160045260246000fd5b600082601f830112610ea257600080fd5b813567ffffffffffffffff80821115610ebd57610ebd610e7b565b604051601f8301601f19908116603f01168101908282118183101715610ee557610ee5610e7b565b81604052838152866020858801011115610efe57600080fd5b836020870160208301376000602085830101528094505050505092915050565b600060208284031215610f3057600080fd5b813567ffffffffffffffff811115610f4757600080fd5b610f5384828501610e91565b949350505050565b60008060408385031215610f6e57600080fd5b82356001600160a01b0381168114610f8557600080fd5b9150602083013567ffffffffffffffff811115610fa157600080fd5b610fad85828601610e91565b9150509250929050565b600080600060608486031215610fcc57600080fd5b833567ffffffffffffffff80821115610fe457600080fd5b610ff087838801610e91565b9450602086013591508082111561100657600080fd5b5061101386828701610e91565b925050604084013590509250925092565b6000806040838503121561103757600080fd5b823567ffffffffffffffff81111561104e57600080fd5b61105a85828601610e91565b95602094909401359450505050565b6000806000806080858703121561107f57600080fd5b843567ffffffffffffffff8082111561109757600080fd5b6110a388838901610e91565b955060208701359150808211156110b957600080fd5b506110c687828801610e91565b949794965050505060408301359260600135919050565b6000602082840312156110ef57600080fd5b5035919050565b60005b838110156111115781810151838201526020016110f9565b50506000910152565b600081518084526111328160208601602086016110f6565b601f01601f19169290920160200192915050565b602081526000611159602083018461111a565b9392505050565b6000602080830181845280855180835260408601915060408160051b870101925083870160005b828110156111b557603f198886030184526111a385835161111a565b94509285019290850190600101611187565b5092979650505050505050565b600082516111d48184602087016110f6565b9190910192915050565b602080825260139082015272151bdad95b881b9bdd081cdd5c1c1bdc9d1959606a1b604082015260600190565b634e487b7160e01b600052601160045260246000fd5b80820281158282048414176112385761123861120b565b92915050565b60008261125b57634e487b7160e01b600052601260045260246000fd5b500490565b808201808211156112385761123861120b565b818103818111156112385761123861120b565b6000600182016112985761129861120b565b5060010190565b60a0815260006112b260a083018861111a565b82810360208401526112c4818861111a565b60408401969096525050606081019290925260809091015292915050565b600181811c908216806112f657607f821691505b60208210810361131657634e487b7160e01b600052602260045260246000fd5b5091905056fea2646970667358221220ed344d32ea5b612569f1f76a2ab0b88fd45497442524853149afd85250da08fd64736f6c63430008130033","opcodes":"PUSH1 0x80 PUSH1 0x40 MSTORE CALLVALUE DUP1 ISZERO PUSH3 0x11 JUMPI PUSH1 0x0 DUP1 REVERT JUMPDEST POP PUSH3 0x1C PUSH3 0x22 JUMP JUMPDEST PUSH3 0x5C7 JUMP JUMPDEST PUSH1 0x40 DUP1 MLOAD PUSH2 0x180 DUP2 ADD DUP3 MSTORE PUSH1 0x4 PUSH2 0x140 DUP3 ADD DUP2 DUP2 MSTORE PUSH4 0xA0AAA69 PUSH1 0xE3 SHL PUSH2 0x160 DUP5 ADD MSTORE DUP3 MSTORE DUP3 MLOAD DUP1 DUP5 ADD DUP5 MSTORE PUSH1 0x3 DUP1 DUP3 MSTORE PUSH3 0x8AA89 PUSH1 0xEB SHL PUSH1 0x20 DUP4 DUP2 ADD SWAP2 SWAP1 SWAP2 MSTORE DUP1 DUP6 ADD SWAP3 SWAP1 SWAP3 MSTORE DUP5 MLOAD DUP1 DUP7 ADD DUP7 MSTORE DUP4 DUP2 MSTORE PUSH4 0x55534443 PUSH1 0xE0 SHL DUP2 DUP5 ADD MSTORE DUP5 DUP7 ADD MSTORE DUP5 MLOAD DUP1 DUP7 ADD DUP7 MSTORE DUP4 DUP2 MSTORE PUSH4 0x1554D115 PUSH1 0xE2 SHL DUP2 DUP5 ADD MSTORE PUSH1 0x60 DUP6 ADD MSTORE DUP5 MLOAD DUP1 DUP7 ADD DUP7 MSTORE DUP2 DUP2 MSTORE PUSH3 0x425443 PUSH1 0xE8 SHL DUP2 DUP5 ADD MSTORE PUSH1 0x80 DUP6 ADD MSTORE DUP5 MLOAD DUP1 DUP7 ADD DUP7 MSTORE DUP2 DUP2 MSTORE PUSH3 0x14D3D3 PUSH1 0xEA SHL DUP2 DUP5 ADD MSTORE PUSH1 0xA0 DUP6 ADD MSTORE DUP5 MLOAD DUP1 DUP7 ADD DUP7 MSTORE SWAP1 DUP2 MSTORE PUSH3 0x212721 PUSH1 0xE9 SHL DUP2 DUP4 ADD MSTORE PUSH1 0xC0 DUP5 ADD MSTORE DUP4 MLOAD DUP1 DUP6 ADD DUP6 MSTORE PUSH1 0x5 DUP2 MSTORE PUSH5 0x4D41544943 PUSH1 0xD8 SHL DUP2 DUP4 ADD MSTORE PUSH1 0xE0 DUP5 ADD MSTORE DUP4 MLOAD DUP1 DUP6 ADD DUP6 MSTORE DUP3 DUP2 MSTORE PUSH4 0x82AC82B PUSH1 0xE3 SHL DUP2 DUP4 ADD MSTORE PUSH2 0x100 DUP5 ADD MSTORE DUP4 MLOAD DUP1 DUP6 ADD SWAP1 SWAP5 MSTORE SWAP1 DUP4 MSTORE PUSH4 0x4C494E4B PUSH1 0xE0 SHL SWAP1 DUP4 ADD MSTORE PUSH2 0x120 DUP2 ADD SWAP2 SWAP1 SWAP2 MSTORE PUSH3 0x150 PUSH3 0x3C8 JUMP JUMPDEST PUSH10 0xD3C21BCECCEDA1000000 DUP2 MSTORE PUSH9 0x1B1AE4D6E2EF500000 PUSH1 0x20 DUP3 ADD MSTORE PUSH11 0x1A784379D99DB42000000 PUSH1 0x40 DUP3 ADD DUP2 SWAP1 MSTORE PUSH1 0x60 DUP3 ADD MSTORE PUSH9 0x15AF1D78B58C40000 PUSH1 0x80 DUP3 ADD MSTORE PUSH10 0x21E19E0C9BAB2400000 PUSH1 0xA0 DUP3 ADD MSTORE PUSH9 0x3635C9ADC5DEA00000 PUSH1 0xC0 DUP3 ADD MSTORE PUSH10 0x69E10DE76676D0800000 PUSH1 0xE0 DUP3 ADD MSTORE PUSH10 0x10F0CF064DD59200000 PUSH2 0x100 DUP3 ADD MSTORE PUSH10 0xA968163F0A57B400000 PUSH2 0x120 DUP3 ADD MSTORE PUSH3 0x1EE PUSH3 0x3C8 JUMP JUMPDEST PUSH8 0x16345785D8A0000 DUP2 MSTORE PUSH8 0xDE0B6B3A7640000 PUSH1 0x20 DUP3 ADD MSTORE PUSH7 0x110D9316EC000 PUSH1 0x40 DUP3 ADD DUP2 SWAP1 MSTORE PUSH1 0x60 DUP3 ADD DUP2 SWAP1 MSTORE PUSH9 0x1158E460913D00000 PUSH1 0x80 DUP4 ADD MSTORE PUSH7 0xB1A2BC2EC50000 PUSH1 0xA0 DUP4 ADD MSTORE PUSH8 0x27F7D0BDB920000 PUSH1 0xC0 DUP4 ADD MSTORE PUSH1 0xE0 DUP3 ADD MSTORE PUSH7 0x2386F26FC10000 PUSH2 0x100 DUP3 ADD MSTORE PUSH7 0xE35FA931A0000 PUSH2 0x120 DUP3 ADD MSTORE PUSH1 0x0 JUMPDEST PUSH1 0xA DUP2 LT ISZERO PUSH3 0x3C2 JUMPI PUSH1 0x5 DUP5 DUP3 PUSH1 0xA DUP2 LT PUSH3 0x28C JUMPI PUSH3 0x28C PUSH3 0x3E7 JUMP JUMPDEST PUSH1 0x20 SWAP1 DUP2 MUL SWAP2 SWAP1 SWAP2 ADD MLOAD DUP3 SLOAD PUSH1 0x1 DUP2 ADD DUP5 SSTORE PUSH1 0x0 SWAP4 DUP5 MSTORE SWAP2 SWAP1 SWAP3 KECCAK256 ADD SWAP1 PUSH3 0x2B5 SWAP1 DUP3 PUSH3 0x4A2 JUMP JUMPDEST POP PUSH1 0x1 PUSH1 0x6 DUP6 DUP4 PUSH1 0xA DUP2 LT PUSH3 0x2CF JUMPI PUSH3 0x2CF PUSH3 0x3E7 JUMP JUMPDEST PUSH1 0x20 MUL ADD MLOAD PUSH1 0x40 MLOAD PUSH3 0x2E3 SWAP2 SWAP1 PUSH3 0x56E JUMP JUMPDEST SWAP1 DUP2 MSTORE PUSH1 0x40 MLOAD SWAP1 DUP2 SWAP1 SUB PUSH1 0x20 ADD SWAP1 KECCAK256 DUP1 SLOAD SWAP2 ISZERO ISZERO PUSH1 0xFF NOT SWAP1 SWAP3 AND SWAP2 SWAP1 SWAP2 OR SWAP1 SSTORE DUP3 DUP2 PUSH1 0xA DUP2 LT PUSH3 0x318 JUMPI PUSH3 0x318 PUSH3 0x3E7 JUMP JUMPDEST PUSH1 0x20 MUL ADD MLOAD PUSH1 0x0 DUP6 DUP4 PUSH1 0xA DUP2 LT PUSH3 0x334 JUMPI PUSH3 0x334 PUSH3 0x3E7 JUMP JUMPDEST PUSH1 0x20 MUL ADD MLOAD PUSH1 0x40 MLOAD PUSH3 0x348 SWAP2 SWAP1 PUSH3 0x56E JUMP JUMPDEST SWAP1 DUP2 MSTORE PUSH1 0x40 MLOAD SWAP1 DUP2 SWAP1 SUB PUSH1 0x20 ADD SWAP1 KECCAK256 SSTORE DUP2 DUP2 PUSH1 0xA DUP2 LT PUSH3 0x36D JUMPI PUSH3 0x36D PUSH3 0x3E7 JUMP JUMPDEST PUSH1 0x20 MUL ADD MLOAD PUSH1 0x2 DUP6 DUP4 PUSH1 0xA DUP2 LT PUSH3 0x389 JUMPI PUSH3 0x389 PUSH3 0x3E7 JUMP JUMPDEST PUSH1 0x20 MUL ADD MLOAD PUSH1 0x40 MLOAD PUSH3 0x39D SWAP2 SWAP1 PUSH3 0x56E JUMP JUMPDEST SWAP1 DUP2 MSTORE PUSH1 0x40 MLOAD SWAP1 DUP2 SWAP1 SUB PUSH1 0x20 ADD SWAP1 KECCAK256 SSTORE DUP1 PUSH3 0x3B9 DUP2 PUSH3 0x59F JUMP JUMPDEST SWAP2 POP POP PUSH3 0x26B JUMP JUMPDEST POP POP POP POP JUMP JUMPDEST PUSH1 0x40 MLOAD DUP1 PUSH2 0x140 ADD PUSH1 0x40 MSTORE DUP1 PUSH1 0xA SWAP1 PUSH1 0x20 DUP3 MUL DUP1 CALLDATASIZE DUP4 CALLDATACOPY POP SWAP2 SWAP3 SWAP2 POP POP JUMP JUMPDEST PUSH4 0x4E487B71 PUSH1 0xE0 SHL PUSH1 0x0 MSTORE PUSH1 0x32 PUSH1 0x4 MSTORE PUSH1 0x24 PUSH1 0x0 REVERT JUMPDEST PUSH4 0x4E487B71 PUSH1 0xE0 SHL PUSH1 0x0 MSTORE PUSH1 0x41 PUSH1 0x4 MSTORE PUSH1 0x24 PUSH1 0x0 REVERT JUMPDEST PUSH1 0x1 DUP2 DUP2 SHR SWAP1 DUP3 AND DUP1 PUSH3 0x428 JUMPI PUSH1 0x7F DUP3 AND SWAP2 POP JUMPDEST PUSH1 0x20 DUP3 LT DUP2 SUB PUSH3 0x449 JUMPI PUSH4 0x4E487B71 PUSH1 0xE0 SHL PUSH1 0x0 MSTORE PUSH1 0x22 PUSH1 0x4 MSTORE PUSH1 0x24 PUSH1 0x0 REVERT JUMPDEST POP SWAP2 SWAP1 POP JUMP JUMPDEST PUSH1 0x1F DUP3 GT ISZERO PUSH3 0x49D JUMPI PUSH1 0x0 DUP2 DUP2 MSTORE PUSH1 0x20 DUP2 KECCAK256 PUSH1 0x1F DUP6 ADD PUSH1 0x5 SHR DUP2 ADD PUSH1 0x20 DUP7 LT ISZERO PUSH3 0x478 JUMPI POP DUP1 JUMPDEST PUSH1 0x1F DUP6 ADD PUSH1 0x5 SHR DUP3 ADD SWAP2 POP JUMPDEST DUP2 DUP2 LT ISZERO PUSH3 0x499 JUMPI DUP3 DUP2 SSTORE PUSH1 0x1 ADD PUSH3 0x484 JUMP JUMPDEST POP POP POP JUMPDEST POP POP POP JUMP JUMPDEST DUP2 MLOAD PUSH1 0x1 PUSH1 0x1 PUSH1 0x40 SHL SUB DUP2 GT ISZERO PUSH3 0x4BE JUMPI PUSH3 0x4BE PUSH3 0x3FD JUMP JUMPDEST PUSH3 0x4D6 DUP2 PUSH3 0x4CF DUP5 SLOAD PUSH3 0x413 JUMP JUMPDEST DUP5 PUSH3 0x44F JUMP JUMPDEST PUSH1 0x20 DUP1 PUSH1 0x1F DUP4 GT PUSH1 0x1 DUP2 EQ PUSH3 0x50E JUMPI PUSH1 0x0 DUP5 ISZERO PUSH3 0x4F5 JUMPI POP DUP6 DUP4 ADD MLOAD JUMPDEST PUSH1 0x0 NOT PUSH1 0x3 DUP7 SWAP1 SHL SHR NOT AND PUSH1 0x1 DUP6 SWAP1 SHL OR DUP6 SSTORE PUSH3 0x499 JUMP JUMPDEST PUSH1 0x0 DUP6 DUP2 MSTORE PUSH1 0x20 DUP2 KECCAK256 PUSH1 0x1F NOT DUP7 AND SWAP2 JUMPDEST DUP3 DUP2 LT ISZERO PUSH3 0x53F JUMPI DUP9 DUP7 ADD MLOAD DUP3 SSTORE SWAP5 DUP5 ADD SWAP5 PUSH1 0x1 SWAP1 SWAP2 ADD SWAP1 DUP5 ADD PUSH3 0x51E JUMP JUMPDEST POP DUP6 DUP3 LT ISZERO PUSH3 0x55E JUMPI DUP8 DUP6 ADD MLOAD PUSH1 0x0 NOT PUSH1 0x3 DUP9 SWAP1 SHL PUSH1 0xF8 AND SHR NOT AND DUP2 SSTORE JUMPDEST POP POP POP POP POP PUSH1 0x1 SWAP1 DUP2 SHL ADD SWAP1 SSTORE POP JUMP JUMPDEST PUSH1 0x0 DUP3 MLOAD PUSH1 0x0 JUMPDEST DUP2 DUP2 LT ISZERO PUSH3 0x591 JUMPI PUSH1 0x20 DUP2 DUP7 ADD DUP2 ADD MLOAD DUP6 DUP4 ADD MSTORE ADD PUSH3 0x575 JUMP JUMPDEST POP PUSH1 0x0 SWAP3 ADD SWAP2 DUP3 MSTORE POP SWAP2 SWAP1 POP JUMP JUMPDEST PUSH1 0x0 PUSH1 0x1 DUP3 ADD PUSH3 0x5C0 JUMPI PUSH4 0x4E487B71 PUSH1 0xE0 SHL PUSH1 0x0 MSTORE PUSH1 0x11 PUSH1 0x4 MSTORE PUSH1 0x24 PUSH1 0x0 REVERT JUMPDEST POP PUSH1 0x1 ADD SWAP1 JUMP JUMPDEST PUSH2 0x1352 DUP1 PUSH3 0x5D7 PUSH1 0x0 CODECOPY PUSH1 0x0 RETURN INVALID PUSH1 0x80 PUSH1 0x40 MSTORE PUSH1 0x4 CALLDATASIZE LT PUSH2 0x101 JUMPI PUSH1 0x0 CALLDATALOAD PUSH1 0xE0 SHR DUP1 PUSH4 0xA525AD3C GT PUSH2 0x8F JUMPI DUP1 PUSH4 0xC59D4847 GT PUSH2 0x61 JUMPI DUP1 PUSH4 0xC59D4847 EQ PUSH2 0x318 JUMPI DUP1 PUSH4 0xC6255626 EQ PUSH2 0x350 JUMPI DUP1 PUSH4 0xC97A413A EQ PUSH2 0x37D JUMPI DUP1 PUSH4 0xD3C7C2C7 EQ PUSH2 0x39D JUMPI DUP1 PUSH4 0xE19CB380 EQ PUSH2 0x3BF JUMPI STOP JUMPDEST DUP1 PUSH4 0xA525AD3C EQ PUSH2 0x2BA JUMPI DUP1 PUSH4 0xAB8EFA57 EQ PUSH2 0x2CF JUMPI DUP1 PUSH4 0xB4A800CE EQ PUSH2 0x2EF JUMPI DUP1 PUSH4 0xBE032C01 EQ PUSH2 0x305 JUMPI STOP JUMPDEST DUP1 PUSH4 0x25009DDB GT PUSH2 0xD3 JUMPI DUP1 PUSH4 0x25009DDB EQ PUSH2 0x1FF JUMPI DUP1 PUSH4 0x5F81A57C EQ PUSH2 0x234 JUMPI DUP1 PUSH4 0x6D6A18A1 EQ PUSH2 0x24A JUMPI DUP1 PUSH4 0x8959C231 EQ PUSH2 0x25D JUMPI DUP1 PUSH4 0x8E0AD1CC EQ PUSH2 0x27D JUMPI STOP JUMPDEST DUP1 PUSH4 0x4DF8301 EQ PUSH2 0x10A JUMPI DUP1 PUSH4 0xD3652EC EQ PUSH2 0x155 JUMPI DUP1 PUSH4 0x126082CF EQ PUSH2 0x1A0 JUMPI DUP1 PUSH4 0x12BD4D74 EQ PUSH2 0x1B6 JUMPI STOP JUMPDEST CALLDATASIZE PUSH2 0x108 JUMPI STOP JUMPDEST STOP JUMPDEST CALLVALUE DUP1 ISZERO PUSH2 0x116 JUMPI PUSH1 0x0 DUP1 REVERT JUMPDEST POP PUSH2 0x142 PUSH2 0x125 CALLDATASIZE PUSH1 0x4 PUSH2 0xF1E JUMP JUMPDEST DUP1 MLOAD PUSH1 0x20 DUP2 DUP4 ADD DUP2 ADD DUP1 MLOAD PUSH1 0x0 DUP3 MSTORE SWAP3 DUP3 ADD SWAP2 SWAP1 SWAP4 ADD KECCAK256 SWAP2 MSTORE SLOAD DUP2 JUMP JUMPDEST PUSH1 0x40 MLOAD SWAP1 DUP2 MSTORE PUSH1 0x20 ADD JUMPDEST PUSH1 0x40 MLOAD DUP1 SWAP2 SUB SWAP1 RETURN JUMPDEST CALLVALUE DUP1 ISZERO PUSH2 0x161 JUMPI PUSH1 0x0 DUP1 REVERT JUMPDEST POP PUSH2 0x190 PUSH2 0x170 CALLDATASIZE PUSH1 0x4 PUSH2 0xF1E JUMP JUMPDEST DUP1 MLOAD PUSH1 0x20 DUP2 DUP4 ADD DUP2 ADD DUP1 MLOAD PUSH1 0x6 DUP3 MSTORE SWAP3 DUP3 ADD SWAP2 SWAP1 SWAP4 ADD KECCAK256 SWAP2 MSTORE SLOAD PUSH1 0xFF AND DUP2 JUMP JUMPDEST PUSH1 0x40 MLOAD SWAP1 ISZERO ISZERO DUP2 MSTORE PUSH1 0x20 ADD PUSH2 0x14C JUMP JUMPDEST CALLVALUE DUP1 ISZERO PUSH2 0x1AC JUMPI PUSH1 0x0 DUP1 REVERT JUMPDEST POP PUSH2 0x142 PUSH2 0x2710 DUP2 JUMP JUMPDEST CALLVALUE DUP1 ISZERO PUSH2 0x1C2 JUMPI PUSH1 0x0 DUP1 REVERT JUMPDEST POP PUSH2 0x142 PUSH2 0x1D1 CALLDATASIZE PUSH1 0x4 PUSH2 0xF5B JUMP JUMPDEST PUSH1 0x1 PUSH1 0x20 SWAP1 DUP2 MSTORE PUSH1 0x0 SWAP3 DUP4 MSTORE PUSH1 0x40 SWAP1 SWAP3 KECCAK256 DUP2 MLOAD DUP1 DUP4 ADD DUP5 ADD DUP1 MLOAD SWAP3 DUP2 MSTORE SWAP1 DUP5 ADD SWAP3 SWAP1 SWAP4 ADD SWAP2 SWAP1 SWAP2 KECCAK256 SWAP2 MSTORE SLOAD DUP2 JUMP JUMPDEST CALLVALUE DUP1 ISZERO PUSH2 0x20B JUMPI PUSH1 0x0 DUP1 REVERT JUMPDEST POP PUSH2 0x21F PUSH2 0x21A CALLDATASIZE PUSH1 0x4 PUSH2 0xFB7 JUMP JUMPDEST PUSH2 0x3F7 JUMP JUMPDEST PUSH1 0x40 DUP1 MLOAD SWAP3 DUP4 MSTORE PUSH1 0x20 DUP4 ADD SWAP2 SWAP1 SWAP2 MSTORE ADD PUSH2 0x14C JUMP JUMPDEST CALLVALUE DUP1 ISZERO PUSH2 0x240 JUMPI PUSH1 0x0 DUP1 REVERT JUMPDEST POP PUSH2 0x142 PUSH1 0x4 SLOAD DUP2 JUMP JUMPDEST PUSH2 0x108 PUSH2 0x258 CALLDATASIZE PUSH1 0x4 PUSH2 0xF1E JUMP JUMPDEST PUSH2 0x4E7 JUMP JUMPDEST CALLVALUE DUP1 ISZERO PUSH2 0x269 JUMPI PUSH1 0x0 DUP1 REVERT JUMPDEST POP PUSH2 0x142 PUSH2 0x278 CALLDATASIZE PUSH1 0x4 PUSH2 0xFB7 JUMP JUMPDEST PUSH2 0x62D JUMP JUMPDEST CALLVALUE DUP1 ISZERO PUSH2 0x289 JUMPI PUSH1 0x0 DUP1 REVERT JUMPDEST POP PUSH2 0x29D PUSH2 0x298 CALLDATASIZE PUSH1 0x4 PUSH2 0xF1E JUMP JUMPDEST PUSH2 0x6E8 JUMP JUMPDEST PUSH1 0x40 DUP1 MLOAD SWAP4 DUP5 MSTORE PUSH1 0x20 DUP5 ADD SWAP3 SWAP1 SWAP3 MSTORE ISZERO ISZERO SWAP1 DUP3 ADD MSTORE PUSH1 0x60 ADD PUSH2 0x14C JUMP JUMPDEST CALLVALUE DUP1 ISZERO PUSH2 0x2C6 JUMPI PUSH1 0x0 DUP1 REVERT JUMPDEST POP PUSH2 0x142 PUSH1 0x1E DUP2 JUMP JUMPDEST CALLVALUE DUP1 ISZERO PUSH2 0x2DB JUMPI PUSH1 0x0 DUP1 REVERT JUMPDEST POP PUSH2 0x108 PUSH2 0x2EA CALLDATASIZE PUSH1 0x4 PUSH2 0x1024 JUMP JUMPDEST PUSH2 0x75B JUMP JUMPDEST CALLVALUE DUP1 ISZERO PUSH2 0x2FB JUMPI PUSH1 0x0 DUP1 REVERT JUMPDEST POP PUSH2 0x142 PUSH1 0x3 SLOAD DUP2 JUMP JUMPDEST PUSH2 0x142 PUSH2 0x313 CALLDATASIZE PUSH1 0x4 PUSH2 0x1069 JUMP JUMPDEST PUSH2 0x811 JUMP JUMPDEST CALLVALUE DUP1 ISZERO PUSH2 0x324 JUMPI PUSH1 0x0 DUP1 REVERT JUMPDEST POP PUSH1 0x3 SLOAD PUSH1 0x4 SLOAD PUSH1 0x5 SLOAD SELFBALANCE SWAP1 PUSH1 0x40 DUP1 MLOAD SWAP5 DUP6 MSTORE PUSH1 0x20 DUP6 ADD SWAP4 SWAP1 SWAP4 MSTORE SWAP2 DUP4 ADD MSTORE PUSH1 0x60 DUP3 ADD MSTORE PUSH1 0x80 ADD PUSH2 0x14C JUMP JUMPDEST CALLVALUE DUP1 ISZERO PUSH2 0x35C JUMPI PUSH1 0x0 DUP1 REVERT JUMPDEST POP PUSH2 0x370 PUSH2 0x36B CALLDATASIZE PUSH1 0x4 PUSH2 0x10DD JUMP JUMPDEST PUSH2 0xC43 JUMP JUMPDEST PUSH1 0x40 MLOAD PUSH2 0x14C SWAP2 SWAP1 PUSH2 0x1146 JUMP JUMPDEST CALLVALUE DUP1 ISZERO PUSH2 0x389 JUMPI PUSH1 0x0 DUP1 REVERT JUMPDEST POP PUSH2 0x108 PUSH2 0x398 CALLDATASIZE PUSH1 0x4 PUSH2 0x1024 JUMP JUMPDEST PUSH2 0xCEF JUMP JUMPDEST CALLVALUE DUP1 ISZERO PUSH2 0x3A9 JUMPI PUSH1 0x0 DUP1 REVERT JUMPDEST POP PUSH2 0x3B2 PUSH2 0xDA2 JUMP JUMPDEST PUSH1 0x40 MLOAD PUSH2 0x14C SWAP2 SWAP1 PUSH2 0x1160 JUMP JUMPDEST CALLVALUE DUP1 ISZERO PUSH2 0x3CB JUMPI PUSH1 0x0 DUP1 REVERT JUMPDEST POP PUSH2 0x142 PUSH2 0x3DA CALLDATASIZE PUSH1 0x4 PUSH2 0xF1E JUMP JUMPDEST DUP1 MLOAD PUSH1 0x20 DUP2 DUP4 ADD DUP2 ADD DUP1 MLOAD PUSH1 0x2 DUP3 MSTORE SWAP3 DUP3 ADD SWAP2 SWAP1 SWAP4 ADD KECCAK256 SWAP2 MSTORE SLOAD DUP2 JUMP JUMPDEST PUSH1 0x0 DUP1 DUP5 PUSH1 0x6 DUP2 PUSH1 0x40 MLOAD PUSH2 0x40B SWAP2 SWAP1 PUSH2 0x11C2 JUMP JUMPDEST SWAP1 DUP2 MSTORE PUSH1 0x40 MLOAD SWAP1 DUP2 SWAP1 SUB PUSH1 0x20 ADD SWAP1 KECCAK256 SLOAD PUSH1 0xFF AND PUSH2 0x443 JUMPI PUSH1 0x40 MLOAD PUSH3 0x461BCD PUSH1 0xE5 SHL DUP2 MSTORE PUSH1 0x4 ADD PUSH2 0x43A SWAP1 PUSH2 0x11DE JUMP JUMPDEST PUSH1 0x40 MLOAD DUP1 SWAP2 SUB SWAP1 REVERT JUMPDEST DUP5 PUSH1 0x6 DUP2 PUSH1 0x40 MLOAD PUSH2 0x454 SWAP2 SWAP1 PUSH2 0x11C2 JUMP JUMPDEST SWAP1 DUP2 MSTORE PUSH1 0x40 MLOAD SWAP1 DUP2 SWAP1 SUB PUSH1 0x20 ADD SWAP1 KECCAK256 SLOAD PUSH1 0xFF AND PUSH2 0x483 JUMPI PUSH1 0x40 MLOAD PUSH3 0x461BCD PUSH1 0xE5 SHL DUP2 MSTORE PUSH1 0x4 ADD PUSH2 0x43A SWAP1 PUSH2 0x11DE JUMP JUMPDEST PUSH2 0x48E DUP8 DUP8 DUP8 PUSH2 0x62D JUMP JUMPDEST SWAP4 POP PUSH1 0x0 DUP1 DUP9 PUSH1 0x40 MLOAD PUSH2 0x4A1 SWAP2 SWAP1 PUSH2 0x11C2 JUMP JUMPDEST SWAP1 DUP2 MSTORE PUSH1 0x40 MLOAD SWAP1 DUP2 SWAP1 SUB PUSH1 0x20 ADD SWAP1 KECCAK256 SLOAD PUSH2 0x4BD DUP8 PUSH2 0x2710 PUSH2 0x1221 JUMP JUMPDEST PUSH2 0x4C7 SWAP2 SWAP1 PUSH2 0x123E JUMP JUMPDEST SWAP1 POP PUSH1 0x64 DUP2 GT PUSH2 0x4D8 JUMPI PUSH1 0x0 PUSH2 0x4DA JUMP JUMPDEST DUP1 JUMPDEST SWAP4 POP POP POP POP SWAP4 POP SWAP4 SWAP2 POP POP JUMP JUMPDEST DUP1 PUSH1 0x6 DUP2 PUSH1 0x40 MLOAD PUSH2 0x4F8 SWAP2 SWAP1 PUSH2 0x11C2 JUMP JUMPDEST SWAP1 DUP2 MSTORE PUSH1 0x40 MLOAD SWAP1 DUP2 SWAP1 SUB PUSH1 0x20 ADD SWAP1 KECCAK256 SLOAD PUSH1 0xFF AND PUSH2 0x527 JUMPI PUSH1 0x40 MLOAD PUSH3 0x461BCD PUSH1 0xE5 SHL DUP2 MSTORE PUSH1 0x4 ADD PUSH2 0x43A SWAP1 PUSH2 0x11DE JUMP JUMPDEST PUSH1 0x0 CALLVALUE GT PUSH2 0x583 JUMPI PUSH1 0x40 MLOAD PUSH3 0x461BCD PUSH1 0xE5 SHL DUP2 MSTORE PUSH1 0x20 PUSH1 0x4 DUP3 ADD MSTORE PUSH1 0x23 PUSH1 0x24 DUP3 ADD MSTORE PUSH32 0x4D7573742073656E64204554482F5055534820746F20616464206C6971756964 PUSH1 0x44 DUP3 ADD MSTORE PUSH3 0x697479 PUSH1 0xE8 SHL PUSH1 0x64 DUP3 ADD MSTORE PUSH1 0x84 ADD PUSH2 0x43A JUMP JUMPDEST CALLVALUE PUSH1 0x0 DUP4 PUSH1 0x40 MLOAD PUSH2 0x594 SWAP2 SWAP1 PUSH2 0x11C2 JUMP JUMPDEST SWAP1 DUP2 MSTORE PUSH1 0x20 ADD PUSH1 0x40 MLOAD DUP1 SWAP2 SUB SWAP1 KECCAK256 PUSH1 0x0 DUP3 DUP3 SLOAD PUSH2 0x5B1 SWAP2 SWAP1 PUSH2 0x1260 JUMP JUMPDEST SWAP1 SWAP2 SSTORE POP POP PUSH1 0x40 MLOAD PUSH2 0x5C4 SWAP1 DUP4 SWAP1 PUSH2 0x11C2 JUMP JUMPDEST PUSH1 0x40 MLOAD DUP1 SWAP2 SUB SWAP1 KECCAK256 PUSH32 0xEF9A7B910ED098C9F5F49A1D4735E1B2C91A849DADDE248958CBC2AB7F55D45C PUSH1 0x0 DUP5 PUSH1 0x40 MLOAD PUSH2 0x5FD SWAP2 SWAP1 PUSH2 0x11C2 JUMP JUMPDEST SWAP1 DUP2 MSTORE PUSH1 0x40 MLOAD SWAP1 DUP2 SWAP1 SUB PUSH1 0x20 ADD DUP2 KECCAK256 SLOAD PUSH2 0x621 SWAP2 TIMESTAMP SWAP1 SWAP2 DUP3 MSTORE PUSH1 0x20 DUP3 ADD MSTORE PUSH1 0x40 ADD SWAP1 JUMP JUMPDEST PUSH1 0x40 MLOAD DUP1 SWAP2 SUB SWAP1 LOG2 POP POP JUMP JUMPDEST PUSH1 0x0 DUP1 PUSH1 0x2 DUP6 PUSH1 0x40 MLOAD PUSH2 0x640 SWAP2 SWAP1 PUSH2 0x11C2 JUMP JUMPDEST SWAP1 DUP2 MSTORE PUSH1 0x20 ADD PUSH1 0x40 MLOAD DUP1 SWAP2 SUB SWAP1 KECCAK256 SLOAD SWAP1 POP PUSH1 0x0 PUSH1 0x2 DUP6 PUSH1 0x40 MLOAD PUSH2 0x663 SWAP2 SWAP1 PUSH2 0x11C2 JUMP JUMPDEST SWAP1 DUP2 MSTORE PUSH1 0x40 MLOAD SWAP1 DUP2 SWAP1 SUB PUSH1 0x20 ADD SWAP1 KECCAK256 SLOAD SWAP1 POP PUSH1 0x0 PUSH8 0xDE0B6B3A7640000 PUSH2 0x68A DUP5 DUP8 PUSH2 0x1221 JUMP JUMPDEST PUSH2 0x694 SWAP2 SWAP1 PUSH2 0x123E JUMP JUMPDEST SWAP1 POP PUSH1 0x0 PUSH2 0x2710 PUSH2 0x6A6 PUSH1 0x1E DUP5 PUSH2 0x1221 JUMP JUMPDEST PUSH2 0x6B0 SWAP2 SWAP1 PUSH2 0x123E JUMP JUMPDEST PUSH2 0x6BA SWAP1 DUP4 PUSH2 0x1273 JUMP JUMPDEST SWAP1 POP PUSH1 0x0 DUP4 PUSH2 0x6D1 DUP4 PUSH8 0xDE0B6B3A7640000 PUSH2 0x1221 JUMP JUMPDEST PUSH2 0x6DB SWAP2 SWAP1 PUSH2 0x123E JUMP JUMPDEST SWAP10 SWAP9 POP POP POP POP POP POP POP POP POP JUMP JUMPDEST PUSH1 0x0 DUP1 PUSH1 0x0 DUP1 DUP5 PUSH1 0x40 MLOAD PUSH2 0x6FC SWAP2 SWAP1 PUSH2 0x11C2 JUMP JUMPDEST SWAP1 DUP2 MSTORE PUSH1 0x20 ADD PUSH1 0x40 MLOAD DUP1 SWAP2 SUB SWAP1 KECCAK256 SLOAD PUSH1 0x2 DUP6 PUSH1 0x40 MLOAD PUSH2 0x71B SWAP2 SWAP1 PUSH2 0x11C2 JUMP JUMPDEST SWAP1 DUP2 MSTORE PUSH1 0x20 ADD PUSH1 0x40 MLOAD DUP1 SWAP2 SUB SWAP1 KECCAK256 SLOAD PUSH1 0x6 DUP7 PUSH1 0x40 MLOAD PUSH2 0x73A SWAP2 SWAP1 PUSH2 0x11C2 JUMP JUMPDEST SWAP1 DUP2 MSTORE PUSH1 0x40 MLOAD SWAP1 DUP2 SWAP1 SUB PUSH1 0x20 ADD SWAP1 KECCAK256 SLOAD SWAP2 SWAP5 POP SWAP3 POP PUSH1 0xFF AND SWAP1 POP SWAP2 SWAP4 SWAP1 SWAP3 POP JUMP JUMPDEST DUP2 PUSH1 0x6 DUP2 PUSH1 0x40 MLOAD PUSH2 0x76C SWAP2 SWAP1 PUSH2 0x11C2 JUMP JUMPDEST SWAP1 DUP2 MSTORE PUSH1 0x40 MLOAD SWAP1 DUP2 SWAP1 SUB PUSH1 0x20 ADD SWAP1 KECCAK256 SLOAD PUSH1 0xFF AND PUSH2 0x79B JUMPI PUSH1 0x40 MLOAD PUSH3 0x461BCD PUSH1 0xE5 SHL DUP2 MSTORE PUSH1 0x4 ADD PUSH2 0x43A SWAP1 PUSH2 0x11DE JUMP JUMPDEST PUSH1 0x0 DUP3 GT PUSH2 0x7EB JUMPI PUSH1 0x40 MLOAD PUSH3 0x461BCD PUSH1 0xE5 SHL DUP2 MSTORE PUSH1 0x20 PUSH1 0x4 DUP3 ADD MSTORE PUSH1 0x1C PUSH1 0x24 DUP3 ADD MSTORE PUSH32 0x5072696365206D7573742062652067726561746572207468616E203000000000 PUSH1 0x44 DUP3 ADD MSTORE PUSH1 0x64 ADD PUSH2 0x43A JUMP JUMPDEST DUP2 PUSH1 0x2 DUP5 PUSH1 0x40 MLOAD PUSH2 0x7FC SWAP2 SWAP1 PUSH2 0x11C2 JUMP JUMPDEST SWAP1 DUP2 MSTORE PUSH1 0x40 MLOAD SWAP1 DUP2 SWAP1 SUB PUSH1 0x20 ADD SWAP1 KECCAK256 SSTORE POP POP POP JUMP JUMPDEST PUSH1 0x0 DUP5 PUSH1 0x6 DUP2 PUSH1 0x40 MLOAD PUSH2 0x824 SWAP2 SWAP1 PUSH2 0x11C2 JUMP JUMPDEST SWAP1 DUP2 MSTORE PUSH1 0x40 MLOAD SWAP1 DUP2 SWAP1 SUB PUSH1 0x20 ADD SWAP1 KECCAK256 SLOAD PUSH1 0xFF AND PUSH2 0x853 JUMPI PUSH1 0x40 MLOAD PUSH3 0x461BCD PUSH1 0xE5 SHL DUP2 MSTORE PUSH1 0x4 ADD PUSH2 0x43A SWAP1 PUSH2 0x11DE JUMP JUMPDEST DUP5 PUSH1 0x6 DUP2 PUSH1 0x40 MLOAD PUSH2 0x864 SWAP2 SWAP1 PUSH2 0x11C2 JUMP JUMPDEST SWAP1 DUP2 MSTORE PUSH1 0x40 MLOAD SWAP1 DUP2 SWAP1 SUB PUSH1 0x20 ADD SWAP1 KECCAK256 SLOAD PUSH1 0xFF AND PUSH2 0x893 JUMPI PUSH1 0x40 MLOAD PUSH3 0x461BCD PUSH1 0xE5 SHL DUP2 MSTORE PUSH1 0x4 ADD PUSH2 0x43A SWAP1 PUSH2 0x11DE JUMP JUMPDEST PUSH1 0x0 DUP6 GT PUSH2 0x8E3 JUMPI PUSH1 0x40 MLOAD PUSH3 0x461BCD PUSH1 0xE5 SHL DUP2 MSTORE PUSH1 0x20 PUSH1 0x4 DUP3 ADD MSTORE PUSH1 0x1D PUSH1 0x24 DUP3 ADD MSTORE PUSH32 0x416D6F756E74206D7573742062652067726561746572207468616E2030000000 PUSH1 0x44 DUP3 ADD MSTORE PUSH1 0x64 ADD PUSH2 0x43A JUMP JUMPDEST DUP6 DUP1 MLOAD SWAP1 PUSH1 0x20 ADD KECCAK256 DUP8 DUP1 MLOAD SWAP1 PUSH1 0x20 ADD KECCAK256 SUB PUSH2 0x939 JUMPI PUSH1 0x40 MLOAD PUSH3 0x461BCD PUSH1 0xE5 SHL DUP2 MSTORE PUSH1 0x20 PUSH1 0x4 DUP3 ADD MSTORE PUSH1 0x16 PUSH1 0x24 DUP3 ADD MSTORE PUSH22 0x21B0B73737BA1039BBB0B81039B0B6B2903A37B5B2B7 PUSH1 0x51 SHL PUSH1 0x44 DUP3 ADD MSTORE PUSH1 0x64 ADD PUSH2 0x43A JUMP JUMPDEST PUSH2 0x944 DUP8 DUP8 DUP8 PUSH2 0x62D JUMP JUMPDEST SWAP3 POP DUP4 DUP4 LT ISZERO PUSH2 0x996 JUMPI PUSH1 0x40 MLOAD PUSH3 0x461BCD PUSH1 0xE5 SHL DUP2 MSTORE PUSH1 0x20 PUSH1 0x4 DUP3 ADD MSTORE PUSH1 0x1A PUSH1 0x24 DUP3 ADD MSTORE PUSH32 0x496E73756666696369656E74206F757470757420616D6F756E74000000000000 PUSH1 0x44 DUP3 ADD MSTORE PUSH1 0x64 ADD PUSH2 0x43A JUMP JUMPDEST PUSH1 0x0 DUP7 PUSH1 0x40 MLOAD PUSH2 0x9A6 SWAP2 SWAP1 PUSH2 0x11C2 JUMP JUMPDEST SWAP1 DUP2 MSTORE PUSH1 0x20 ADD PUSH1 0x40 MLOAD DUP1 SWAP2 SUB SWAP1 KECCAK256 SLOAD DUP4 GT ISZERO PUSH2 0x9FD JUMPI PUSH1 0x40 MLOAD PUSH3 0x461BCD PUSH1 0xE5 SHL DUP2 MSTORE PUSH1 0x20 PUSH1 0x4 DUP3 ADD MSTORE PUSH1 0x16 PUSH1 0x24 DUP3 ADD MSTORE PUSH22 0x496E73756666696369656E74206C6971756964697479 PUSH1 0x50 SHL PUSH1 0x44 DUP3 ADD MSTORE PUSH1 0x64 ADD PUSH2 0x43A JUMP JUMPDEST PUSH1 0x40 DUP1 MLOAD DUP1 DUP3 ADD SWAP1 SWAP2 MSTORE PUSH1 0x4 DUP2 MSTORE PUSH4 0xA0AAA69 PUSH1 0xE3 SHL PUSH1 0x20 SWAP2 DUP3 ADD MSTORE DUP8 MLOAD SWAP1 DUP9 ADD KECCAK256 PUSH32 0xE45A6728791B65ECE184DF9A321611A31BDB88025EF1D20A1F07F83649C3567C EQ DUP1 PUSH2 0xA8B JUMPI POP PUSH1 0x40 DUP1 MLOAD DUP1 DUP3 ADD SWAP1 SWAP2 MSTORE PUSH1 0x3 DUP2 MSTORE PUSH3 0x8AA89 PUSH1 0xEB SHL PUSH1 0x20 SWAP2 DUP3 ADD MSTORE DUP8 MLOAD SWAP1 DUP9 ADD KECCAK256 PUSH32 0xAAAEBEBA3810B1E6B70781F14B2D72C1CB89C0B2B320C43BB67FF79F562F5FF4 EQ JUMPDEST ISZERO PUSH2 0xB20 JUMPI DUP5 CALLVALUE LT ISZERO PUSH2 0xAE0 JUMPI PUSH1 0x40 MLOAD PUSH3 0x461BCD PUSH1 0xE5 SHL DUP2 MSTORE PUSH1 0x20 PUSH1 0x4 DUP3 ADD MSTORE PUSH1 0x1A PUSH1 0x24 DUP3 ADD MSTORE PUSH32 0x496E73756666696369656E74204554482F505553482073656E74000000000000 PUSH1 0x44 DUP3 ADD MSTORE PUSH1 0x64 ADD PUSH2 0x43A JUMP JUMPDEST DUP5 CALLVALUE GT ISZERO PUSH2 0xB20 JUMPI CALLER PUSH2 0x8FC PUSH2 0xAF6 DUP8 CALLVALUE PUSH2 0x1273 JUMP JUMPDEST PUSH1 0x40 MLOAD DUP2 ISZERO SWAP1 SWAP3 MUL SWAP2 PUSH1 0x0 DUP2 DUP2 DUP2 DUP6 DUP9 DUP9 CALL SWAP4 POP POP POP POP ISZERO DUP1 ISZERO PUSH2 0xB1E JUMPI RETURNDATASIZE PUSH1 0x0 DUP1 RETURNDATACOPY RETURNDATASIZE PUSH1 0x0 REVERT JUMPDEST POP JUMPDEST DUP5 PUSH1 0x0 DUP9 PUSH1 0x40 MLOAD PUSH2 0xB31 SWAP2 SWAP1 PUSH2 0x11C2 JUMP JUMPDEST SWAP1 DUP2 MSTORE PUSH1 0x20 ADD PUSH1 0x40 MLOAD DUP1 SWAP2 SUB SWAP1 KECCAK256 PUSH1 0x0 DUP3 DUP3 SLOAD PUSH2 0xB4E SWAP2 SWAP1 PUSH2 0x1260 JUMP JUMPDEST SWAP3 POP POP DUP2 SWAP1 SSTORE POP DUP3 PUSH1 0x0 DUP8 PUSH1 0x40 MLOAD PUSH2 0xB66 SWAP2 SWAP1 PUSH2 0x11C2 JUMP JUMPDEST SWAP1 DUP2 MSTORE PUSH1 0x20 ADD PUSH1 0x40 MLOAD DUP1 SWAP2 SUB SWAP1 KECCAK256 PUSH1 0x0 DUP3 DUP3 SLOAD PUSH2 0xB83 SWAP2 SWAP1 PUSH2 0x1273 JUMP JUMPDEST SWAP1 SWAP2 SSTORE POP POP CALLER PUSH1 0x0 SWAP1 DUP2 MSTORE PUSH1 0x1 PUSH1 0x20 MSTORE PUSH1 0x40 SWAP1 DUP2 SWAP1 KECCAK256 SWAP1 MLOAD DUP5 SWAP2 SWAP1 PUSH2 0xBA9 SWAP1 DUP10 SWAP1 PUSH2 0x11C2 JUMP JUMPDEST SWAP1 DUP2 MSTORE PUSH1 0x20 ADD PUSH1 0x40 MLOAD DUP1 SWAP2 SUB SWAP1 KECCAK256 PUSH1 0x0 DUP3 DUP3 SLOAD PUSH2 0xBC6 SWAP2 SWAP1 PUSH2 0x1260 JUMP JUMPDEST SWAP1 SWAP2 SSTORE POP POP PUSH1 0x3 DUP1 SLOAD SWAP1 PUSH1 0x0 PUSH2 0xBDB DUP4 PUSH2 0x1286 JUMP JUMPDEST SWAP2 SWAP1 POP SSTORE POP DUP5 PUSH1 0x4 PUSH1 0x0 DUP3 DUP3 SLOAD PUSH2 0xBF2 SWAP2 SWAP1 PUSH2 0x1260 JUMP JUMPDEST SWAP1 SWAP2 SSTORE POP POP PUSH1 0x40 MLOAD CALLER SWAP1 PUSH32 0xA5EB57732D7F9B2373F9AE97EFC9A21480553C3C87955162F03CDBA9C3D93F67 SWAP1 PUSH2 0xC31 SWAP1 DUP11 SWAP1 DUP11 SWAP1 DUP11 SWAP1 DUP10 SWAP1 TIMESTAMP SWAP1 PUSH2 0x129F JUMP JUMPDEST PUSH1 0x40 MLOAD DUP1 SWAP2 SUB SWAP1 LOG2 POP POP SWAP5 SWAP4 POP POP POP POP JUMP JUMPDEST PUSH1 0x5 DUP2 DUP2 SLOAD DUP2 LT PUSH2 0xC53 JUMPI PUSH1 0x0 DUP1 REVERT JUMPDEST SWAP1 PUSH1 0x0 MSTORE PUSH1 0x20 PUSH1 0x0 KECCAK256 ADD PUSH1 0x0 SWAP2 POP SWAP1 POP DUP1 SLOAD PUSH2 0xC6E SWAP1 PUSH2 0x12E2 JUMP JUMPDEST DUP1 PUSH1 0x1F ADD PUSH1 0x20 DUP1 SWAP2 DIV MUL PUSH1 0x20 ADD PUSH1 0x40 MLOAD SWAP1 DUP2 ADD PUSH1 0x40 MSTORE DUP1 SWAP3 SWAP2 SWAP1 DUP2 DUP2 MSTORE PUSH1 0x20 ADD DUP3 DUP1 SLOAD PUSH2 0xC9A SWAP1 PUSH2 0x12E2 JUMP JUMPDEST DUP1 ISZERO PUSH2 0xCE7 JUMPI DUP1 PUSH1 0x1F LT PUSH2 0xCBC JUMPI PUSH2 0x100 DUP1 DUP4 SLOAD DIV MUL DUP4 MSTORE SWAP2 PUSH1 0x20 ADD SWAP2 PUSH2 0xCE7 JUMP JUMPDEST DUP3 ADD SWAP2 SWAP1 PUSH1 0x0 MSTORE PUSH1 0x20 PUSH1 0x0 KECCAK256 SWAP1 JUMPDEST DUP2 SLOAD DUP2 MSTORE SWAP1 PUSH1 0x1 ADD SWAP1 PUSH1 0x20 ADD DUP1 DUP4 GT PUSH2 0xCCA JUMPI DUP3 SWAP1 SUB PUSH1 0x1F AND DUP3 ADD SWAP2 JUMPDEST POP POP POP POP POP DUP2 JUMP JUMPDEST CALLER PUSH1 0x0 SWAP1 DUP2 MSTORE PUSH1 0x1 PUSH1 0x20 MSTORE PUSH1 0x40 SWAP1 DUP2 SWAP1 KECCAK256 SWAP1 MLOAD DUP3 SWAP2 SWAP1 PUSH2 0xD10 SWAP1 DUP6 SWAP1 PUSH2 0x11C2 JUMP JUMPDEST SWAP1 DUP2 MSTORE PUSH1 0x20 ADD PUSH1 0x40 MLOAD DUP1 SWAP2 SUB SWAP1 KECCAK256 SLOAD LT ISZERO PUSH2 0xD64 JUMPI PUSH1 0x40 MLOAD PUSH3 0x461BCD PUSH1 0xE5 SHL DUP2 MSTORE PUSH1 0x20 PUSH1 0x4 DUP3 ADD MSTORE PUSH1 0x14 PUSH1 0x24 DUP3 ADD MSTORE PUSH20 0x496E73756666696369656E742062616C616E6365 PUSH1 0x60 SHL PUSH1 0x44 DUP3 ADD MSTORE PUSH1 0x64 ADD PUSH2 0x43A JUMP JUMPDEST CALLER PUSH1 0x0 SWAP1 DUP2 MSTORE PUSH1 0x1 PUSH1 0x20 MSTORE PUSH1 0x40 SWAP1 DUP2 SWAP1 KECCAK256 SWAP1 MLOAD DUP3 SWAP2 SWAP1 PUSH2 0xD85 SWAP1 DUP6 SWAP1 PUSH2 0x11C2 JUMP JUMPDEST SWAP1 DUP2 MSTORE PUSH1 0x20 ADD PUSH1 0x40 MLOAD DUP1 SWAP2 SUB SWAP1 KECCAK256 PUSH1 0x0 DUP3 DUP3 SLOAD PUSH2 0x5B1 SWAP2 SWAP1 PUSH2 0x1273 JUMP JUMPDEST PUSH1 0x60 PUSH1 0x5 DUP1 SLOAD DUP1 PUSH1 0x20 MUL PUSH1 0x20 ADD PUSH1 0x40 MLOAD SWAP1 DUP2 ADD PUSH1 0x40 MSTORE DUP1 SWAP3 SWAP2 SWAP1 DUP2 DUP2 MSTORE PUSH1 0x20 ADD PUSH1 0x0 SWAP1 JUMPDEST DUP3 DUP3 LT ISZERO PUSH2 0xE72 JUMPI DUP4 DUP3 SWAP1 PUSH1 0x0 MSTORE PUSH1 0x20 PUSH1 0x0 KECCAK256 ADD DUP1 SLOAD PUSH2 0xDE5 SWAP1 PUSH2 0x12E2 JUMP JUMPDEST DUP1 PUSH1 0x1F ADD PUSH1 0x20 DUP1 SWAP2 DIV MUL PUSH1 0x20 ADD PUSH1 0x40 MLOAD SWAP1 DUP2 ADD PUSH1 0x40 MSTORE DUP1 SWAP3 SWAP2 SWAP1 DUP2 DUP2 MSTORE PUSH1 0x20 ADD DUP3 DUP1 SLOAD PUSH2 0xE11 SWAP1 PUSH2 0x12E2 JUMP JUMPDEST DUP1 ISZERO PUSH2 0xE5E JUMPI DUP1 PUSH1 0x1F LT PUSH2 0xE33 JUMPI PUSH2 0x100 DUP1 DUP4 SLOAD DIV MUL DUP4 MSTORE SWAP2 PUSH1 0x20 ADD SWAP2 PUSH2 0xE5E JUMP JUMPDEST DUP3 ADD SWAP2 SWAP1 PUSH1 0x0 MSTORE PUSH1 0x20 PUSH1 0x0 KECCAK256 SWAP1 JUMPDEST DUP2 SLOAD DUP2 MSTORE SWAP1 PUSH1 0x1 ADD SWAP1 PUSH1 0x20 ADD DUP1 DUP4 GT PUSH2 0xE41 JUMPI DUP3 SWAP1 SUB PUSH1 0x1F AND DUP3 ADD SWAP2 JUMPDEST POP POP POP POP POP DUP2 MSTORE PUSH1 0x20 ADD SWAP1 PUSH1 0x1 ADD SWAP1 PUSH2 0xDC6 JUMP JUMPDEST POP POP POP POP SWAP1 POP SWAP1 JUMP JUMPDEST PUSH4 0x4E487B71 PUSH1 0xE0 SHL PUSH1 0x0 MSTORE PUSH1 0x41 PUSH1 0x4 MSTORE PUSH1 0x24 PUSH1 0x0 REVERT JUMPDEST PUSH1 0x0 DUP3 PUSH1 0x1F DUP4 ADD SLT PUSH2 0xEA2 JUMPI PUSH1 0x0 DUP1 REVERT JUMPDEST DUP2 CALLDATALOAD PUSH8 0xFFFFFFFFFFFFFFFF DUP1 DUP3 GT ISZERO PUSH2 0xEBD JUMPI PUSH2 0xEBD PUSH2 0xE7B JUMP JUMPDEST PUSH1 0x40 MLOAD PUSH1 0x1F DUP4 ADD PUSH1 0x1F NOT SWAP1 DUP2 AND PUSH1 0x3F ADD AND DUP2 ADD SWAP1 DUP3 DUP3 GT DUP2 DUP4 LT OR ISZERO PUSH2 0xEE5 JUMPI PUSH2 0xEE5 PUSH2 0xE7B JUMP JUMPDEST DUP2 PUSH1 0x40 MSTORE DUP4 DUP2 MSTORE DUP7 PUSH1 0x20 DUP6 DUP9 ADD ADD GT ISZERO PUSH2 0xEFE JUMPI PUSH1 0x0 DUP1 REVERT JUMPDEST DUP4 PUSH1 0x20 DUP8 ADD PUSH1 0x20 DUP4 ADD CALLDATACOPY PUSH1 0x0 PUSH1 0x20 DUP6 DUP4 ADD ADD MSTORE DUP1 SWAP5 POP POP POP POP POP SWAP3 SWAP2 POP POP JUMP JUMPDEST PUSH1 0x0 PUSH1 0x20 DUP3 DUP5 SUB SLT ISZERO PUSH2 0xF30 JUMPI PUSH1 0x0 DUP1 REVERT JUMPDEST DUP2 CALLDATALOAD PUSH8 0xFFFFFFFFFFFFFFFF DUP2 GT ISZERO PUSH2 0xF47 JUMPI PUSH1 0x0 DUP1 REVERT JUMPDEST PUSH2 0xF53 DUP5 DUP3 DUP6 ADD PUSH2 0xE91 JUMP JUMPDEST SWAP5 SWAP4 POP POP POP POP JUMP JUMPDEST PUSH1 0x0 DUP1 PUSH1 0x40 DUP4 DUP6 SUB SLT ISZERO PUSH2 0xF6E JUMPI PUSH1 0x0 DUP1 REVERT JUMPDEST DUP3 CALLDATALOAD PUSH1 0x1 PUSH1 0x1 PUSH1 0xA0 SHL SUB DUP2 AND DUP2 EQ PUSH2 0xF85 JUMPI PUSH1 0x0 DUP1 REVERT JUMPDEST SWAP2 POP PUSH1 0x20 DUP4 ADD CALLDATALOAD PUSH8 0xFFFFFFFFFFFFFFFF DUP2 GT ISZERO PUSH2 0xFA1 JUMPI PUSH1 0x0 DUP1 REVERT JUMPDEST PUSH2 0xFAD DUP6 DUP3 DUP7 ADD PUSH2 0xE91 JUMP JUMPDEST SWAP2 POP POP SWAP3 POP SWAP3 SWAP1 POP JUMP JUMPDEST PUSH1 0x0 DUP1 PUSH1 0x0 PUSH1 0x60 DUP5 DUP7 SUB SLT ISZERO PUSH2 0xFCC JUMPI PUSH1 0x0 DUP1 REVERT JUMPDEST DUP4 CALLDATALOAD PUSH8 0xFFFFFFFFFFFFFFFF DUP1 DUP3 GT ISZERO PUSH2 0xFE4 JUMPI PUSH1 0x0 DUP1 REVERT JUMPDEST PUSH2 0xFF0 DUP8 DUP4 DUP9 ADD PUSH2 0xE91 JUMP JUMPDEST SWAP5 POP PUSH1 0x20 DUP7 ADD CALLDATALOAD SWAP2 POP DUP1 DUP3 GT ISZERO PUSH2 0x1006 JUMPI PUSH1 0x0 DUP1 REVERT JUMPDEST POP PUSH2 0x1013 DUP7 DUP3 DUP8 ADD PUSH2 0xE91 JUMP JUMPDEST SWAP3 POP POP PUSH1 0x40 DUP5 ADD CALLDATALOAD SWAP1 POP SWAP3 POP SWAP3 POP SWAP3 JUMP JUMPDEST PUSH1 0x0 DUP1 PUSH1 0x40 DUP4 DUP6 SUB SLT ISZERO PUSH2 0x1037 JUMPI PUSH1 0x0 DUP1 REVERT JUMPDEST DUP3 CALLDATALOAD PUSH8 0xFFFFFFFFFFFFFFFF DUP2 GT ISZERO PUSH2 0x104E JUMPI PUSH1 0x0 DUP1 REVERT JUMPDEST PUSH2 0x105A DUP6 DUP3 DUP7 ADD PUSH2 0xE91 JUMP JUMPDEST SWAP6 PUSH1 0x20 SWAP5 SWAP1 SWAP5 ADD CALLDATALOAD SWAP5 POP POP POP POP JUMP JUMPDEST PUSH1 0x0 DUP1 PUSH1 0x0 DUP1 PUSH1 0x80 DUP6 DUP8 SUB SLT ISZERO PUSH2 0x107F JUMPI PUSH1 0x0 DUP1 REVERT JUMPDEST DUP5 CALLDATALOAD PUSH8 0xFFFFFFFFFFFFFFFF DUP1 DUP3 GT ISZERO PUSH2 0x1097 JUMPI PUSH1 0x0 DUP1 REVERT JUMPDEST PUSH2 0x10A3 DUP9 DUP4 DUP10 ADD PUSH2 0xE91 JUMP JUMPDEST SWAP6 POP PUSH1 0x20 DUP8 ADD CALLDATALOAD SWAP2 POP DUP1 DUP3 GT ISZERO PUSH2 0x10B9 JUMPI PUSH1 0x0 DUP1 REVERT JUMPDEST POP PUSH2 0x10C6 DUP8 DUP3 DUP9 ADD PUSH2 0xE91 JUMP JUMPDEST SWAP5 SWAP8 SWAP5 SWAP7 POP POP POP POP PUSH1 0x40 DUP4 ADD CALLDATALOAD SWAP3 PUSH1 0x60 ADD CALLDATALOAD SWAP2 SWAP1 POP JUMP JUMPDEST PUSH1 0x0 PUSH1 0x20 DUP3 DUP5 SUB SLT ISZERO PUSH2 0x10EF JUMPI PUSH1 0x0 DUP1 REVERT JUMPDEST POP CALLDATALOAD SWAP2 SWAP1 POP JUMP JUMPDEST PUSH1 0x0 JUMPDEST DUP4 DUP2 LT ISZERO PUSH2 0x1111 JUMPI DUP2 DUP2 ADD MLOAD DUP4 DUP3 ADD MSTORE PUSH1 0x20 ADD PUSH2 0x10F9 JUMP JUMPDEST POP POP PUSH1 0x0 SWAP2 ADD MSTORE JUMP JUMPDEST PUSH1 0x0 DUP2 MLOAD DUP1 DUP5 MSTORE PUSH2 0x1132 DUP2 PUSH1 0x20 DUP7 ADD PUSH1 0x20 DUP7 ADD PUSH2 0x10F6 JUMP JUMPDEST PUSH1 0x1F ADD PUSH1 0x1F NOT AND SWAP3 SWAP1 SWAP3 ADD PUSH1 0x20 ADD SWAP3 SWAP2 POP POP JUMP JUMPDEST PUSH1 0x20 DUP2 MSTORE PUSH1 0x0 PUSH2 0x1159 PUSH1 0x20 DUP4 ADD DUP5 PUSH2 0x111A JUMP JUMPDEST SWAP4 SWAP3 POP POP POP JUMP JUMPDEST PUSH1 0x0 PUSH1 0x20 DUP1 DUP4 ADD DUP2 DUP5 MSTORE DUP1 DUP6 MLOAD DUP1 DUP4 MSTORE PUSH1 0x40 DUP7 ADD SWAP2 POP PUSH1 0x40 DUP2 PUSH1 0x5 SHL DUP8 ADD ADD SWAP3 POP DUP4 DUP8 ADD PUSH1 0x0 JUMPDEST DUP3 DUP2 LT ISZERO PUSH2 0x11B5 JUMPI PUSH1 0x3F NOT DUP9 DUP7 SUB ADD DUP5 MSTORE PUSH2 0x11A3 DUP6 DUP4 MLOAD PUSH2 0x111A JUMP JUMPDEST SWAP5 POP SWAP3 DUP6 ADD SWAP3 SWAP1 DUP6 ADD SWAP1 PUSH1 0x1 ADD PUSH2 0x1187 JUMP JUMPDEST POP SWAP3 SWAP8 SWAP7 POP POP POP POP POP POP POP JUMP JUMPDEST PUSH1 0x0 DUP3 MLOAD PUSH2 0x11D4 DUP2 DUP5 PUSH1 0x20 DUP8 ADD PUSH2 0x10F6 JUMP JUMPDEST SWAP2 SWAP1 SWAP2 ADD SWAP3 SWAP2 POP POP JUMP JUMPDEST PUSH1 0x20 DUP1 DUP3 MSTORE PUSH1 0x13 SWAP1 DUP3 ADD MSTORE PUSH19 0x151BDAD95B881B9BDD081CDD5C1C1BDC9D1959 PUSH1 0x6A SHL PUSH1 0x40 DUP3 ADD MSTORE PUSH1 0x60 ADD SWAP1 JUMP JUMPDEST PUSH4 0x4E487B71 PUSH1 0xE0 SHL PUSH1 0x0 MSTORE PUSH1 0x11 PUSH1 0x4 MSTORE PUSH1 0x24 PUSH1 0x0 REVERT JUMPDEST DUP1 DUP3 MUL DUP2 ISZERO DUP3 DUP3 DIV DUP5 EQ OR PUSH2 0x1238 JUMPI PUSH2 0x1238 PUSH2 0x120B JUMP JUMPDEST SWAP3 SWAP2 POP POP JUMP JUMPDEST PUSH1 0x0 DUP3 PUSH2 0x125B JUMPI PUSH4 0x4E487B71 PUSH1 0xE0 SHL PUSH1 0x0 MSTORE PUSH1 0x12 PUSH1 0x4 MSTORE PUSH1 0x24 PUSH1 0x0 REVERT JUMPDEST POP DIV SWAP1 JUMP JUMPDEST DUP1 DUP3 ADD DUP1 DUP3 GT ISZERO PUSH2 0x1238 JUMPI PUSH2 0x1238 PUSH2 0x120B JUMP JUMPDEST DUP2 DUP2 SUB DUP2 DUP2 GT ISZERO PUSH2 0x1238 JUMPI PUSH2 0x1238 PUSH2 0x120B JUMP JUMPDEST PUSH1 0x0 PUSH1 0x1 DUP3 ADD PUSH2 0x1298 JUMPI PUSH2 0x1298 PUSH2 0x120B JUMP JUMPDEST POP PUSH1 0x1 ADD SWAP1 JUMP JUMPDEST PUSH1 0xA0 DUP2 MSTORE PUSH1 0x0 PUSH2 0x12B2 PUSH1 0xA0 DUP4 ADD DUP9 PUSH2 0x111A JUMP JUMPDEST DUP3 DUP2 SUB PUSH1 0x20 DUP5 ADD MSTORE PUSH2 0x12C4 DUP2 DUP9 PUSH2 0x111A JUMP JUMPDEST PUSH1 0x40 DUP5 ADD SWAP7 SWAP1 SWAP7 MSTORE POP POP PUSH1 0x60 DUP2 ADD SWAP3 SWAP1 SWAP3 MSTORE PUSH1 0x80 SWAP1 SWAP2 ADD MSTORE SWAP3 SWAP2 POP POP JUMP JUMPDEST PUSH1 0x1 DUP2 DUP2 SHR SWAP1 DUP3 AND DUP1 PUSH2 0x12F6 JUMPI PUSH1 0x7F DUP3 AND SWAP2 POP JUMPDEST PUSH1 0x20 DUP3 LT DUP2 SUB PUSH2 0x1316 JUMPI PUSH4 0x4E487B71 PUSH1 0xE0 SHL PUSH1 0x0 MSTORE PUSH1 0x22 PUSH1 0x4 MSTORE PUSH1 0x24 PUSH1 0x0 REVERT JUMPDEST POP SWAP2 SWAP1 POP JUMP INVALID LOG2 PUSH5 0x6970667358 0x22 SLT KECCAK256 0xED CALLVALUE 0x4D ORIGIN 0xEA JUMPDEST PUSH2 0x2569 CALL 0xF7 PUSH11 0x2AB0B88FD4549744252485 BALANCE 0x49 0xAF 0xD8 MSTORE POP 0xDA ADDMOD REVERT PUSH5 0x736F6C6343 STOP ADDMOD SGT STOP CALLER "},"methodIdentifiers":{"BASIS_POINTS_DIVISOR()":"126082cf","FEE_BASIS_POINTS()":"a525ad3c","addLiquidity(string)":"6d6a18a1","calculateSwapOutput(string,string,uint256)":"8959c231","executeUniversalSwap(string,string,uint256,uint256)":"be032c01","getQuote(string,string,uint256)":"25009ddb","getStats()":"c59d4847","getSupportedTokens()":"d3c7c2c7","getTokenInfo(string)":"8e0ad1cc","isTokenSupported(string)":"0d3652ec","supportedTokens(uint256)":"c6255626","tokenLiquidity(string)":"04df8301","tokenPrices(string)":"e19cb380","totalSwaps()":"b4a800ce","totalVolume()":"5f81a57c","updateTokenPrice(string,uint256)":"ab8efa57","userBalances(address,string)":"12bd4d74","withdrawToken(string,uint256)":"c97a413a"}}}}}